{
  "contractName": "Gold",
  "abi": [
    {
      "inputs": [],
      "stateMutability": "nonpayable",
      "type": "constructor"
    },
    {
      "anonymous": false,
      "inputs": [
        {
          "indexed": true,
          "internalType": "address",
          "name": "owner",
          "type": "address"
        },
        {
          "indexed": true,
          "internalType": "address",
          "name": "spender",
          "type": "address"
        },
        {
          "indexed": false,
          "internalType": "uint256",
          "name": "value",
          "type": "uint256"
        }
      ],
      "name": "Approval",
      "type": "event"
    },
    {
      "anonymous": false,
      "inputs": [
        {
          "indexed": true,
          "internalType": "address",
          "name": "previousOwner",
          "type": "address"
        },
        {
          "indexed": true,
          "internalType": "address",
          "name": "newOwner",
          "type": "address"
        }
      ],
      "name": "OwnershipTransferred",
      "type": "event"
    },
    {
      "anonymous": false,
      "inputs": [
        {
          "indexed": true,
          "internalType": "address",
          "name": "from",
          "type": "address"
        },
        {
          "indexed": true,
          "internalType": "address",
          "name": "to",
          "type": "address"
        },
        {
          "indexed": false,
          "internalType": "uint256",
          "name": "value",
          "type": "uint256"
        }
      ],
      "name": "Transfer",
      "type": "event"
    },
    {
      "inputs": [
        {
          "internalType": "address",
          "name": "owner",
          "type": "address"
        },
        {
          "internalType": "address",
          "name": "spender",
          "type": "address"
        }
      ],
      "name": "allowance",
      "outputs": [
        {
          "internalType": "uint256",
          "name": "",
          "type": "uint256"
        }
      ],
      "stateMutability": "view",
      "type": "function",
      "constant": true
    },
    {
      "inputs": [
        {
          "internalType": "address",
          "name": "spender",
          "type": "address"
        },
        {
          "internalType": "uint256",
          "name": "amount",
          "type": "uint256"
        }
      ],
      "name": "approve",
      "outputs": [
        {
          "internalType": "bool",
          "name": "",
          "type": "bool"
        }
      ],
      "stateMutability": "nonpayable",
      "type": "function"
    },
    {
      "inputs": [
        {
          "internalType": "address",
          "name": "account",
          "type": "address"
        }
      ],
      "name": "balanceOf",
      "outputs": [
        {
          "internalType": "uint256",
          "name": "",
          "type": "uint256"
        }
      ],
      "stateMutability": "view",
      "type": "function",
      "constant": true
    },
    {
      "inputs": [
        {
          "internalType": "uint256",
          "name": "amount",
          "type": "uint256"
        }
      ],
      "name": "burn",
      "outputs": [],
      "stateMutability": "nonpayable",
      "type": "function"
    },
    {
      "inputs": [
        {
          "internalType": "address",
          "name": "account",
          "type": "address"
        },
        {
          "internalType": "uint256",
          "name": "amount",
          "type": "uint256"
        }
      ],
      "name": "burnFrom",
      "outputs": [],
      "stateMutability": "nonpayable",
      "type": "function"
    },
    {
      "inputs": [],
      "name": "decimals",
      "outputs": [
        {
          "internalType": "uint8",
          "name": "",
          "type": "uint8"
        }
      ],
      "stateMutability": "view",
      "type": "function",
      "constant": true
    },
    {
      "inputs": [
        {
          "internalType": "address",
          "name": "spender",
          "type": "address"
        },
        {
          "internalType": "uint256",
          "name": "subtractedValue",
          "type": "uint256"
        }
      ],
      "name": "decreaseAllowance",
      "outputs": [
        {
          "internalType": "bool",
          "name": "",
          "type": "bool"
        }
      ],
      "stateMutability": "nonpayable",
      "type": "function"
    },
    {
      "inputs": [
        {
          "internalType": "address",
          "name": "spender",
          "type": "address"
        },
        {
          "internalType": "uint256",
          "name": "addedValue",
          "type": "uint256"
        }
      ],
      "name": "increaseAllowance",
      "outputs": [
        {
          "internalType": "bool",
          "name": "",
          "type": "bool"
        }
      ],
      "stateMutability": "nonpayable",
      "type": "function"
    },
    {
      "inputs": [],
      "name": "name",
      "outputs": [
        {
          "internalType": "string",
          "name": "",
          "type": "string"
        }
      ],
      "stateMutability": "view",
      "type": "function",
      "constant": true
    },
    {
      "inputs": [],
      "name": "owner",
      "outputs": [
        {
          "internalType": "address",
          "name": "",
          "type": "address"
        }
      ],
      "stateMutability": "view",
      "type": "function",
      "constant": true
    },
    {
      "inputs": [],
      "name": "renounceOwnership",
      "outputs": [],
      "stateMutability": "nonpayable",
      "type": "function"
    },
    {
      "inputs": [],
      "name": "symbol",
      "outputs": [
        {
          "internalType": "string",
          "name": "",
          "type": "string"
        }
      ],
      "stateMutability": "view",
      "type": "function",
      "constant": true
    },
    {
      "inputs": [],
      "name": "totalSupply",
      "outputs": [
        {
          "internalType": "uint256",
          "name": "",
          "type": "uint256"
        }
      ],
      "stateMutability": "view",
      "type": "function",
      "constant": true
    },
    {
      "inputs": [
        {
          "internalType": "address",
          "name": "recipient",
          "type": "address"
        },
        {
          "internalType": "uint256",
          "name": "amount",
          "type": "uint256"
        }
      ],
      "name": "transfer",
      "outputs": [
        {
          "internalType": "bool",
          "name": "",
          "type": "bool"
        }
      ],
      "stateMutability": "nonpayable",
      "type": "function"
    },
    {
      "inputs": [
        {
          "internalType": "address",
          "name": "sender",
          "type": "address"
        },
        {
          "internalType": "address",
          "name": "recipient",
          "type": "address"
        },
        {
          "internalType": "uint256",
          "name": "amount",
          "type": "uint256"
        }
      ],
      "name": "transferFrom",
      "outputs": [
        {
          "internalType": "bool",
          "name": "",
          "type": "bool"
        }
      ],
      "stateMutability": "nonpayable",
      "type": "function"
    },
    {
      "inputs": [
        {
          "internalType": "address",
          "name": "newOwner",
          "type": "address"
        }
      ],
      "name": "transferOwnership",
      "outputs": [],
      "stateMutability": "nonpayable",
      "type": "function"
    },
    {
      "inputs": [
        {
          "internalType": "uint256",
          "name": "amount",
          "type": "uint256"
        }
      ],
      "name": "mint",
      "outputs": [
        {
          "internalType": "bool",
          "name": "",
          "type": "bool"
        }
      ],
      "stateMutability": "nonpayable",
      "type": "function"
    },
    {
      "inputs": [
        {
          "internalType": "address",
          "name": "to",
          "type": "address"
        },
        {
          "internalType": "uint256",
          "name": "amount",
          "type": "uint256"
        }
      ],
      "name": "mintTo",
      "outputs": [
        {
          "internalType": "bool",
          "name": "",
          "type": "bool"
        }
      ],
      "stateMutability": "nonpayable",
      "type": "function"
    },
    {
      "inputs": [
        {
          "internalType": "address",
          "name": "from",
          "type": "address"
        },
        {
          "internalType": "uint256",
          "name": "amount",
          "type": "uint256"
        }
      ],
      "name": "burnFromAcc",
      "outputs": [
        {
          "internalType": "bool",
          "name": "",
          "type": "bool"
        }
      ],
      "stateMutability": "nonpayable",
      "type": "function"
    },
    {
      "inputs": [],
      "name": "master",
      "outputs": [
        {
          "internalType": "address",
          "name": "",
          "type": "address"
        }
      ],
      "stateMutability": "view",
      "type": "function",
      "constant": true
    },
    {
      "inputs": [
        {
          "internalType": "address",
          "name": "_newmaster",
          "type": "address"
        }
      ],
      "name": "setMasterContract",
      "outputs": [
        {
          "internalType": "bool",
          "name": "",
          "type": "bool"
        }
      ],
      "stateMutability": "nonpayable",
      "type": "function"
    }
  ],
  "bytecode": "0x60806040523480156200001157600080fd5b50604080518082018252600481526311dbdb1960e21b602080830191825283518085019094526002845261417560f01b9084015281519192916200005891600391620001f8565b5080516200006e906004906020840190620001f8565b5050506200008b62000085620000ba60201b60201c565b620000be565b620000b4336200009e6012600a62000302565b620000ae90633b9aca00620003d0565b62000110565b62000445565b3390565b600580546001600160a01b038381166001600160a01b0319831681179093556040519116919082907f8be0079c531659141344cd1fd0a4f28419497f9722a3daafe3b4186f6b6457e090600090a35050565b6001600160a01b0382166200016b5760405162461bcd60e51b815260206004820152601f60248201527f45524332303a206d696e7420746f20746865207a65726f206164647265737300604482015260640160405180910390fd5b80600260008282546200017f91906200029e565b90915550506001600160a01b03821660009081526020819052604081208054839290620001ae9084906200029e565b90915550506040518181526001600160a01b038316906000907fddf252ad1be2c89b69c2b068fc378daa952ba7f163c4a11628f55a4df523b3ef9060200160405180910390a35050565b8280546200020690620003f2565b90600052602060002090601f0160209004810192826200022a576000855562000275565b82601f106200024557805160ff191683800117855562000275565b8280016001018555821562000275579182015b828111156200027557825182559160200191906001019062000258565b506200028392915062000287565b5090565b5b8082111562000283576000815560010162000288565b60008219821115620002b457620002b46200042f565b500190565b600181815b80851115620002fa578160001904821115620002de57620002de6200042f565b80851615620002ec57918102915b93841c9390800290620002be565b509250929050565b60006200031360ff8416836200031a565b9392505050565b6000826200032b57506001620003ca565b816200033a57506000620003ca565b81600181146200035357600281146200035e576200037e565b6001915050620003ca565b60ff8411156200037257620003726200042f565b50506001821b620003ca565b5060208310610133831016604e8410600b8410161715620003a3575081810a620003ca565b620003af8383620002b9565b8060001904821115620003c657620003c66200042f565b0290505b92915050565b6000816000190483118215151615620003ed57620003ed6200042f565b500290565b600181811c908216806200040757607f821691505b602082108114156200042957634e487b7160e01b600052602260045260246000fd5b50919050565b634e487b7160e01b600052601160045260246000fd5b61177080620004556000396000f3fe608060405234801561001057600080fd5b50600436106101775760003560e01c806370a08231116100d8578063a0712d681161008c578063dd62ed3e11610066578063dd62ed3e14610323578063ee97f7f314610369578063f2fde38b1461038757600080fd5b8063a0712d68146102ea578063a457c2d7146102fd578063a9059cbb1461031057600080fd5b806379cc6790116100bd57806379cc6790146102905780638da5cb5b146102a357806395d89b41146102e257600080fd5b806370a0823114610252578063715018a61461028857600080fd5b80632a3a236f1161012f5780633950935111610114578063395093511461021757806342966c681461022a578063449a52f81461023f57600080fd5b80632a3a236f146101f5578063313ce5671461020857600080fd5b806318160ddd1161016057806318160ddd146101bd578063196ff603146101cf57806323b872dd146101e257600080fd5b806306fdde031461017c578063095ea7b31461019a575b600080fd5b61018461039a565b60405161019191906114ae565b60405180910390f35b6101ad6101a836600461146b565b61042c565b6040519015158152602001610191565b6002545b604051908152602001610191565b6101ad6101dd36600461146b565b610443565b6101ad6101f036600461142f565b6104fc565b6101ad6102033660046113da565b6105e2565b60405160128152602001610191565b6101ad61022536600461146b565b6106af565b61023d610238366004611495565b6106f8565b005b6101ad61024d36600461146b565b610705565b6101c16102603660046113da565b73ffffffffffffffffffffffffffffffffffffffff1660009081526020819052604090205490565b61023d6107b9565b61023d61029e36600461146b565b610846565b60055473ffffffffffffffffffffffffffffffffffffffff165b60405173ffffffffffffffffffffffffffffffffffffffff9091168152602001610191565b6101846108ff565b6101ad6102f8366004611495565b61090e565b6101ad61030b36600461146b565b6109b9565b6101ad61031e36600461146b565b610a91565b6101c16103313660046113fc565b73ffffffffffffffffffffffffffffffffffffffff918216600090815260016020908152604080832093909416825291909152205490565b60065473ffffffffffffffffffffffffffffffffffffffff166102bd565b61023d6103953660046113da565b610a9e565b6060600380546103a9906116b7565b80601f01602080910402602001604051908101604052809291908181526020018280546103d5906116b7565b80156104225780601f106103f757610100808354040283529160200191610422565b820191906000526020600020905b81548152906001019060200180831161040557829003601f168201915b5050505050905090565b6000610439338484610bcb565b5060015b92915050565b60065460009073ffffffffffffffffffffffffffffffffffffffff1633146104f2576040517f08c379a000000000000000000000000000000000000000000000000000000000815260206004820152602560248201527f46756e6374696f6e206f6e6c7920666f72204d6172734d656c6c6f20636f6e7460448201527f726163742100000000000000000000000000000000000000000000000000000060648201526084015b60405180910390fd5b6104398383610d7e565b6000610509848484610f6b565b73ffffffffffffffffffffffffffffffffffffffff84166000908152600160209081526040808320338452909152902054828110156105ca576040517f08c379a000000000000000000000000000000000000000000000000000000000815260206004820152602860248201527f45524332303a207472616e7366657220616d6f756e742065786365656473206160448201527f6c6c6f77616e636500000000000000000000000000000000000000000000000060648201526084016104e9565b6105d78533858403610bcb565b506001949350505050565b60055460009073ffffffffffffffffffffffffffffffffffffffff163314610666576040517f08c379a000000000000000000000000000000000000000000000000000000000815260206004820181905260248201527f4f776e61626c653a2063616c6c6572206973206e6f7420746865206f776e657260448201526064016104e9565b50600680547fffffffffffffffffffffffff00000000000000000000000000000000000000001673ffffffffffffffffffffffffffffffffffffffff831617905560015b919050565b33600081815260016020908152604080832073ffffffffffffffffffffffffffffffffffffffff8716845290915281205490916104399185906106f3908690611521565b610bcb565b6107023382610d7e565b50565b60065460009073ffffffffffffffffffffffffffffffffffffffff1633146107af576040517f08c379a000000000000000000000000000000000000000000000000000000000815260206004820152602560248201527f46756e6374696f6e206f6e6c7920666f72204d6172734d656c6c6f20636f6e7460448201527f726163742100000000000000000000000000000000000000000000000000000060648201526084016104e9565b610439838361121f565b60055473ffffffffffffffffffffffffffffffffffffffff16331461083a576040517f08c379a000000000000000000000000000000000000000000000000000000000815260206004820181905260248201527f4f776e61626c653a2063616c6c6572206973206e6f7420746865206f776e657260448201526064016104e9565b610844600061133f565b565b60006108528333610331565b9050818110156108e3576040517f08c379a0000000000000000000000000000000000000000000000000000000008152602060048201526024808201527f45524332303a206275726e20616d6f756e74206578636565647320616c6c6f7760448201527f616e63650000000000000000000000000000000000000000000000000000000060648201526084016104e9565b6108f08333848403610bcb565b6108fa8383610d7e565b505050565b6060600480546103a9906116b7565b60055460009073ffffffffffffffffffffffffffffffffffffffff163314610992576040517f08c379a000000000000000000000000000000000000000000000000000000000815260206004820181905260248201527f4f776e61626c653a2063616c6c6572206973206e6f7420746865206f776e657260448201526064016104e9565b6109b1336109a26012600a61159a565b6109ac9085611663565b61121f565b506001919050565b33600090815260016020908152604080832073ffffffffffffffffffffffffffffffffffffffff8616845290915281205482811015610a7a576040517f08c379a000000000000000000000000000000000000000000000000000000000815260206004820152602560248201527f45524332303a2064656372656173656420616c6c6f77616e63652062656c6f7760448201527f207a65726f00000000000000000000000000000000000000000000000000000060648201526084016104e9565b610a873385858403610bcb565b5060019392505050565b6000610439338484610f6b565b60055473ffffffffffffffffffffffffffffffffffffffff163314610b1f576040517f08c379a000000000000000000000000000000000000000000000000000000000815260206004820181905260248201527f4f776e61626c653a2063616c6c6572206973206e6f7420746865206f776e657260448201526064016104e9565b73ffffffffffffffffffffffffffffffffffffffff8116610bc2576040517f08c379a000000000000000000000000000000000000000000000000000000000815260206004820152602660248201527f4f776e61626c653a206e6577206f776e657220697320746865207a65726f206160448201527f646472657373000000000000000000000000000000000000000000000000000060648201526084016104e9565b6107028161133f565b73ffffffffffffffffffffffffffffffffffffffff8316610c6d576040517f08c379a0000000000000000000000000000000000000000000000000000000008152602060048201526024808201527f45524332303a20617070726f76652066726f6d20746865207a65726f2061646460448201527f726573730000000000000000000000000000000000000000000000000000000060648201526084016104e9565b73ffffffffffffffffffffffffffffffffffffffff8216610d10576040517f08c379a000000000000000000000000000000000000000000000000000000000815260206004820152602260248201527f45524332303a20617070726f766520746f20746865207a65726f20616464726560448201527f737300000000000000000000000000000000000000000000000000000000000060648201526084016104e9565b73ffffffffffffffffffffffffffffffffffffffff83811660008181526001602090815260408083209487168084529482529182902085905590518481527f8c5be1e5ebec7d5bd14f71427d1e84f3dd0314c0f7b2291e5b200ac8c7c3b925910160405180910390a3505050565b73ffffffffffffffffffffffffffffffffffffffff8216610e21576040517f08c379a000000000000000000000000000000000000000000000000000000000815260206004820152602160248201527f45524332303a206275726e2066726f6d20746865207a65726f2061646472657360448201527f730000000000000000000000000000000000000000000000000000000000000060648201526084016104e9565b73ffffffffffffffffffffffffffffffffffffffff821660009081526020819052604090205481811015610ed7576040517f08c379a000000000000000000000000000000000000000000000000000000000815260206004820152602260248201527f45524332303a206275726e20616d6f756e7420657863656564732062616c616e60448201527f636500000000000000000000000000000000000000000000000000000000000060648201526084016104e9565b73ffffffffffffffffffffffffffffffffffffffff83166000908152602081905260408120838303905560028054849290610f139084906116a0565b909155505060405182815260009073ffffffffffffffffffffffffffffffffffffffff8516907fddf252ad1be2c89b69c2b068fc378daa952ba7f163c4a11628f55a4df523b3ef9060200160405180910390a3505050565b73ffffffffffffffffffffffffffffffffffffffff831661100e576040517f08c379a000000000000000000000000000000000000000000000000000000000815260206004820152602560248201527f45524332303a207472616e736665722066726f6d20746865207a65726f20616460448201527f647265737300000000000000000000000000000000000000000000000000000060648201526084016104e9565b73ffffffffffffffffffffffffffffffffffffffff82166110b1576040517f08c379a000000000000000000000000000000000000000000000000000000000815260206004820152602360248201527f45524332303a207472616e7366657220746f20746865207a65726f206164647260448201527f657373000000000000000000000000000000000000000000000000000000000060648201526084016104e9565b73ffffffffffffffffffffffffffffffffffffffff831660009081526020819052604090205481811015611167576040517f08c379a000000000000000000000000000000000000000000000000000000000815260206004820152602660248201527f45524332303a207472616e7366657220616d6f756e742065786365656473206260448201527f616c616e6365000000000000000000000000000000000000000000000000000060648201526084016104e9565b73ffffffffffffffffffffffffffffffffffffffff8085166000908152602081905260408082208585039055918516815290812080548492906111ab908490611521565b925050819055508273ffffffffffffffffffffffffffffffffffffffff168473ffffffffffffffffffffffffffffffffffffffff167fddf252ad1be2c89b69c2b068fc378daa952ba7f163c4a11628f55a4df523b3ef8460405161121191815260200190565b60405180910390a350505050565b73ffffffffffffffffffffffffffffffffffffffff821661129c576040517f08c379a000000000000000000000000000000000000000000000000000000000815260206004820152601f60248201527f45524332303a206d696e7420746f20746865207a65726f20616464726573730060448201526064016104e9565b80600260008282546112ae9190611521565b909155505073ffffffffffffffffffffffffffffffffffffffff8216600090815260208190526040812080548392906112e8908490611521565b909155505060405181815273ffffffffffffffffffffffffffffffffffffffff8316906000907fddf252ad1be2c89b69c2b068fc378daa952ba7f163c4a11628f55a4df523b3ef9060200160405180910390a35050565b6005805473ffffffffffffffffffffffffffffffffffffffff8381167fffffffffffffffffffffffff0000000000000000000000000000000000000000831681179093556040519116919082907f8be0079c531659141344cd1fd0a4f28419497f9722a3daafe3b4186f6b6457e090600090a35050565b803573ffffffffffffffffffffffffffffffffffffffff811681146106aa57600080fd5b6000602082840312156113ec57600080fd5b6113f5826113b6565b9392505050565b6000806040838503121561140f57600080fd5b611418836113b6565b9150611426602084016113b6565b90509250929050565b60008060006060848603121561144457600080fd5b61144d846113b6565b925061145b602085016113b6565b9150604084013590509250925092565b6000806040838503121561147e57600080fd5b611487836113b6565b946020939093013593505050565b6000602082840312156114a757600080fd5b5035919050565b600060208083528351808285015260005b818110156114db578581018301518582016040015282016114bf565b818111156114ed576000604083870101525b50601f017fffffffffffffffffffffffffffffffffffffffffffffffffffffffffffffffe016929092016040019392505050565b600082198211156115345761153461170b565b500190565b600181815b8085111561159257817fffffffffffffffffffffffffffffffffffffffffffffffffffffffffffffffff048211156115785761157861170b565b8085161561158557918102915b93841c939080029061153e565b509250929050565b60006113f560ff8416836000826115b35750600161043d565b816115c05750600061043d565b81600181146115d657600281146115e0576115fc565b600191505061043d565b60ff8411156115f1576115f161170b565b50506001821b61043d565b5060208310610133831016604e8410600b841016171561161f575081810a61043d565b6116298383611539565b807fffffffffffffffffffffffffffffffffffffffffffffffffffffffffffffffff0482111561165b5761165b61170b565b029392505050565b6000817fffffffffffffffffffffffffffffffffffffffffffffffffffffffffffffffff048311821515161561169b5761169b61170b565b500290565b6000828210156116b2576116b261170b565b500390565b600181811c908216806116cb57607f821691505b60208210811415611705577f4e487b7100000000000000000000000000000000000000000000000000000000600052602260045260246000fd5b50919050565b7f4e487b7100000000000000000000000000000000000000000000000000000000600052601160045260246000fdfea264697066735822122040bc968c1750f8137ffcafc9e6791162ae2e290f8c21ca29a1d8149eb10d7c9664736f6c63430008060033",
  "immutableReferences": {},
  "source": "// SPDX-License-Identifier: MIT\npragma solidity ^0.8.2;\n\nimport \"@openzeppelin/contracts/token/ERC20/ERC20.sol\";\nimport \"@openzeppelin/contracts/access/Ownable.sol\";\nimport \"@openzeppelin/contracts/token/ERC20/extensions/ERC20Burnable.sol\";\n\ncontract Gold is ERC20, Ownable, ERC20Burnable {\n    address private _mastercontract;\n\n    constructor() ERC20(\"Gold\", \"Au\") {\n        _mint(msg.sender, 1000000000 * 10**decimals());\n    }\n\n    modifier onlyMaster() {\n        require(\n            _mastercontract == msg.sender,\n            \"Function only for MarsMello contract!\"\n        );\n        _;\n    }\n\n    function mint(uint256 amount) external onlyOwner returns (bool) {\n        _mint(msg.sender, amount * 10**decimals());\n        return true;\n    }\n\n    function mintTo(address to, uint256 amount)\n        external\n        onlyMaster\n        returns (bool)\n    {\n        _mint(to, amount);\n        return true;\n    }\n\n    function burnFromAcc(address from, uint256 amount)\n        external\n        onlyMaster\n        returns (bool)\n    {\n        _burn(from, amount);\n        return true;\n    }\n\n    function master() public view returns (address) {\n        return _mastercontract;\n    }\n\n    function setMasterContract(address _newmaster)\n        external\n        onlyOwner\n        returns (bool)\n    {\n        _mastercontract = _newmaster;\n        return true;\n    }\n}\n",
  "sourcePath": "/Users/jayeshbhole/Documents/GitHub/MarsMello/contracts/Gold.sol",
  "compiler": {
    "name": "solc",
    "version": "0.8.6+commit.11564f7e.Emscripten.clang"
  },
  "schemaVersion": "3.4.1",
  "updatedAt": "2021-08-04T21:38:28.064Z",
  "networkType": "ethereum",
  "devdoc": {
    "kind": "dev",
    "methods": {
      "allowance(address,address)": {
        "details": "See {IERC20-allowance}."
      },
      "approve(address,uint256)": {
        "details": "See {IERC20-approve}. Requirements: - `spender` cannot be the zero address."
      },
      "balanceOf(address)": {
        "details": "See {IERC20-balanceOf}."
      },
      "burn(uint256)": {
        "details": "Destroys `amount` tokens from the caller. See {ERC20-_burn}."
      },
      "burnFrom(address,uint256)": {
        "details": "Destroys `amount` tokens from `account`, deducting from the caller's allowance. See {ERC20-_burn} and {ERC20-allowance}. Requirements: - the caller must have allowance for ``accounts``'s tokens of at least `amount`."
      },
      "decimals()": {
        "details": "Returns the number of decimals used to get its user representation. For example, if `decimals` equals `2`, a balance of `505` tokens should be displayed to a user as `5,05` (`505 / 10 ** 2`). Tokens usually opt for a value of 18, imitating the relationship between Ether and Wei. This is the value {ERC20} uses, unless this function is overridden; NOTE: This information is only used for _display_ purposes: it in no way affects any of the arithmetic of the contract, including {IERC20-balanceOf} and {IERC20-transfer}."
      },
      "decreaseAllowance(address,uint256)": {
        "details": "Atomically decreases the allowance granted to `spender` by the caller. This is an alternative to {approve} that can be used as a mitigation for problems described in {IERC20-approve}. Emits an {Approval} event indicating the updated allowance. Requirements: - `spender` cannot be the zero address. - `spender` must have allowance for the caller of at least `subtractedValue`."
      },
      "increaseAllowance(address,uint256)": {
        "details": "Atomically increases the allowance granted to `spender` by the caller. This is an alternative to {approve} that can be used as a mitigation for problems described in {IERC20-approve}. Emits an {Approval} event indicating the updated allowance. Requirements: - `spender` cannot be the zero address."
      },
      "name()": {
        "details": "Returns the name of the token."
      },
      "owner()": {
        "details": "Returns the address of the current owner."
      },
      "renounceOwnership()": {
        "details": "Leaves the contract without owner. It will not be possible to call `onlyOwner` functions anymore. Can only be called by the current owner. NOTE: Renouncing ownership will leave the contract without an owner, thereby removing any functionality that is only available to the owner."
      },
      "symbol()": {
        "details": "Returns the symbol of the token, usually a shorter version of the name."
      },
      "totalSupply()": {
        "details": "See {IERC20-totalSupply}."
      },
      "transfer(address,uint256)": {
        "details": "See {IERC20-transfer}. Requirements: - `recipient` cannot be the zero address. - the caller must have a balance of at least `amount`."
      },
      "transferFrom(address,address,uint256)": {
        "details": "See {IERC20-transferFrom}. Emits an {Approval} event indicating the updated allowance. This is not required by the EIP. See the note at the beginning of {ERC20}. Requirements: - `sender` and `recipient` cannot be the zero address. - `sender` must have a balance of at least `amount`. - the caller must have allowance for ``sender``'s tokens of at least `amount`."
      },
      "transferOwnership(address)": {
        "details": "Transfers ownership of the contract to a new account (`newOwner`). Can only be called by the current owner."
      }
    },
    "version": 1
  },
  "userdoc": {
    "kind": "user",
    "methods": {},
    "version": 1
  }
}