{
  "contractName": "Marsmello",
  "abi": [
    {
      "inputs": [],
      "stateMutability": "nonpayable",
      "type": "constructor"
    },
    {
      "anonymous": false,
      "inputs": [
        {
          "indexed": true,
          "internalType": "address",
          "name": "owner",
          "type": "address"
        },
        {
          "indexed": true,
          "internalType": "address",
          "name": "spender",
          "type": "address"
        },
        {
          "indexed": false,
          "internalType": "uint256",
          "name": "value",
          "type": "uint256"
        }
      ],
      "name": "Approval",
      "type": "event"
    },
    {
      "anonymous": false,
      "inputs": [
        {
          "indexed": true,
          "internalType": "uint64",
          "name": "id",
          "type": "uint64"
        },
        {
          "indexed": false,
          "internalType": "address",
          "name": "owner",
          "type": "address"
        },
        {
          "indexed": false,
          "internalType": "uint16",
          "name": "ftype",
          "type": "uint16"
        },
        {
          "indexed": false,
          "internalType": "uint16",
          "name": "efficiency",
          "type": "uint16"
        },
        {
          "indexed": true,
          "internalType": "int32",
          "name": "x",
          "type": "int32"
        },
        {
          "indexed": true,
          "internalType": "int32",
          "name": "y",
          "type": "int32"
        },
        {
          "indexed": false,
          "internalType": "string",
          "name": "name",
          "type": "string"
        }
      ],
      "name": "FactoryE",
      "type": "event"
    },
    {
      "anonymous": false,
      "inputs": [
        {
          "indexed": true,
          "internalType": "int32",
          "name": "x",
          "type": "int32"
        },
        {
          "indexed": true,
          "internalType": "int32",
          "name": "y",
          "type": "int32"
        },
        {
          "indexed": true,
          "internalType": "address",
          "name": "owner",
          "type": "address"
        },
        {
          "indexed": false,
          "internalType": "uint64",
          "name": "factory",
          "type": "uint64"
        },
        {
          "indexed": false,
          "internalType": "uint128",
          "name": "seed",
          "type": "uint128"
        }
      ],
      "name": "LandE",
      "type": "event"
    },
    {
      "anonymous": false,
      "inputs": [
        {
          "indexed": true,
          "internalType": "address",
          "name": "previousOwner",
          "type": "address"
        },
        {
          "indexed": true,
          "internalType": "address",
          "name": "newOwner",
          "type": "address"
        }
      ],
      "name": "OwnershipTransferred",
      "type": "event"
    },
    {
      "anonymous": false,
      "inputs": [
        {
          "indexed": true,
          "internalType": "address",
          "name": "from",
          "type": "address"
        },
        {
          "indexed": true,
          "internalType": "address",
          "name": "to",
          "type": "address"
        },
        {
          "indexed": false,
          "internalType": "uint256",
          "name": "value",
          "type": "uint256"
        }
      ],
      "name": "Transfer",
      "type": "event"
    },
    {
      "inputs": [
        {
          "internalType": "address",
          "name": "owner",
          "type": "address"
        },
        {
          "internalType": "address",
          "name": "spender",
          "type": "address"
        }
      ],
      "name": "allowance",
      "outputs": [
        {
          "internalType": "uint256",
          "name": "",
          "type": "uint256"
        }
      ],
      "stateMutability": "view",
      "type": "function",
      "constant": true
    },
    {
      "inputs": [
        {
          "internalType": "address",
          "name": "spender",
          "type": "address"
        },
        {
          "internalType": "uint256",
          "name": "amount",
          "type": "uint256"
        }
      ],
      "name": "approve",
      "outputs": [
        {
          "internalType": "bool",
          "name": "",
          "type": "bool"
        }
      ],
      "stateMutability": "nonpayable",
      "type": "function"
    },
    {
      "inputs": [
        {
          "internalType": "address",
          "name": "account",
          "type": "address"
        }
      ],
      "name": "balanceOf",
      "outputs": [
        {
          "internalType": "uint256",
          "name": "",
          "type": "uint256"
        }
      ],
      "stateMutability": "view",
      "type": "function",
      "constant": true
    },
    {
      "inputs": [],
      "name": "decimals",
      "outputs": [
        {
          "internalType": "uint8",
          "name": "",
          "type": "uint8"
        }
      ],
      "stateMutability": "view",
      "type": "function",
      "constant": true
    },
    {
      "inputs": [
        {
          "internalType": "address",
          "name": "spender",
          "type": "address"
        },
        {
          "internalType": "uint256",
          "name": "subtractedValue",
          "type": "uint256"
        }
      ],
      "name": "decreaseAllowance",
      "outputs": [
        {
          "internalType": "bool",
          "name": "",
          "type": "bool"
        }
      ],
      "stateMutability": "nonpayable",
      "type": "function"
    },
    {
      "inputs": [
        {
          "internalType": "address",
          "name": "spender",
          "type": "address"
        },
        {
          "internalType": "uint256",
          "name": "addedValue",
          "type": "uint256"
        }
      ],
      "name": "increaseAllowance",
      "outputs": [
        {
          "internalType": "bool",
          "name": "",
          "type": "bool"
        }
      ],
      "stateMutability": "nonpayable",
      "type": "function"
    },
    {
      "inputs": [],
      "name": "name",
      "outputs": [
        {
          "internalType": "string",
          "name": "",
          "type": "string"
        }
      ],
      "stateMutability": "view",
      "type": "function",
      "constant": true
    },
    {
      "inputs": [],
      "name": "owner",
      "outputs": [
        {
          "internalType": "address",
          "name": "",
          "type": "address"
        }
      ],
      "stateMutability": "view",
      "type": "function",
      "constant": true
    },
    {
      "inputs": [],
      "name": "renounceOwnership",
      "outputs": [],
      "stateMutability": "nonpayable",
      "type": "function"
    },
    {
      "inputs": [],
      "name": "symbol",
      "outputs": [
        {
          "internalType": "string",
          "name": "",
          "type": "string"
        }
      ],
      "stateMutability": "view",
      "type": "function",
      "constant": true
    },
    {
      "inputs": [],
      "name": "totalSupply",
      "outputs": [
        {
          "internalType": "uint256",
          "name": "",
          "type": "uint256"
        }
      ],
      "stateMutability": "view",
      "type": "function",
      "constant": true
    },
    {
      "inputs": [
        {
          "internalType": "address",
          "name": "recipient",
          "type": "address"
        },
        {
          "internalType": "uint256",
          "name": "amount",
          "type": "uint256"
        }
      ],
      "name": "transfer",
      "outputs": [
        {
          "internalType": "bool",
          "name": "",
          "type": "bool"
        }
      ],
      "stateMutability": "nonpayable",
      "type": "function"
    },
    {
      "inputs": [
        {
          "internalType": "address",
          "name": "sender",
          "type": "address"
        },
        {
          "internalType": "address",
          "name": "recipient",
          "type": "address"
        },
        {
          "internalType": "uint256",
          "name": "amount",
          "type": "uint256"
        }
      ],
      "name": "transferFrom",
      "outputs": [
        {
          "internalType": "bool",
          "name": "",
          "type": "bool"
        }
      ],
      "stateMutability": "nonpayable",
      "type": "function"
    },
    {
      "inputs": [
        {
          "internalType": "address",
          "name": "newOwner",
          "type": "address"
        }
      ],
      "name": "transferOwnership",
      "outputs": [],
      "stateMutability": "nonpayable",
      "type": "function"
    },
    {
      "inputs": [
        {
          "internalType": "address",
          "name": "a",
          "type": "address"
        }
      ],
      "name": "chechUser",
      "outputs": [],
      "stateMutability": "nonpayable",
      "type": "function"
    },
    {
      "inputs": [
        {
          "internalType": "address",
          "name": "user",
          "type": "address"
        }
      ],
      "name": "getUserData",
      "outputs": [
        {
          "internalType": "uint64[]",
          "name": "",
          "type": "uint64[]"
        },
        {
          "components": [
            {
              "internalType": "int32",
              "name": "x",
              "type": "int32"
            },
            {
              "internalType": "int32",
              "name": "y",
              "type": "int32"
            }
          ],
          "internalType": "struct Marsmello.CoOrdinates[]",
          "name": "",
          "type": "tuple[]"
        },
        {
          "internalType": "uint128[]",
          "name": "",
          "type": "uint128[]"
        },
        {
          "internalType": "uint64",
          "name": "",
          "type": "uint64"
        }
      ],
      "stateMutability": "view",
      "type": "function",
      "constant": true
    },
    {
      "inputs": [],
      "name": "getLandPrice",
      "outputs": [
        {
          "internalType": "uint256",
          "name": "",
          "type": "uint256"
        }
      ],
      "stateMutability": "view",
      "type": "function",
      "constant": true
    },
    {
      "inputs": [
        {
          "internalType": "uint256",
          "name": "rand",
          "type": "uint256"
        }
      ],
      "name": "getRandomNumber",
      "outputs": [
        {
          "internalType": "uint128",
          "name": "",
          "type": "uint128"
        }
      ],
      "stateMutability": "view",
      "type": "function",
      "constant": true
    },
    {
      "inputs": [
        {
          "internalType": "uint128",
          "name": "price",
          "type": "uint128"
        },
        {
          "internalType": "bool",
          "name": "land_dependent",
          "type": "bool"
        },
        {
          "internalType": "uint128[]",
          "name": "r1",
          "type": "uint128[]"
        },
        {
          "internalType": "int128[]",
          "name": "r2",
          "type": "int128[]"
        }
      ],
      "name": "addFactoryType",
      "outputs": [
        {
          "internalType": "uint256",
          "name": "",
          "type": "uint256"
        }
      ],
      "stateMutability": "nonpayable",
      "type": "function"
    },
    {
      "inputs": [],
      "name": "deletefactoryType",
      "outputs": [],
      "stateMutability": "nonpayable",
      "type": "function"
    },
    {
      "inputs": [],
      "name": "getFactoryType",
      "outputs": [
        {
          "components": [
            {
              "internalType": "uint128",
              "name": "price",
              "type": "uint128"
            },
            {
              "components": [
                {
                  "internalType": "uint128",
                  "name": "id",
                  "type": "uint128"
                },
                {
                  "internalType": "int128",
                  "name": "rate",
                  "type": "int128"
                }
              ],
              "internalType": "struct Marsmello.Resource[]",
              "name": "resources",
              "type": "tuple[]"
            },
            {
              "internalType": "bool",
              "name": "land_dependent",
              "type": "bool"
            }
          ],
          "internalType": "struct Marsmello.Factory_type[]",
          "name": "",
          "type": "tuple[]"
        }
      ],
      "stateMutability": "view",
      "type": "function",
      "constant": true
    },
    {
      "inputs": [
        {
          "internalType": "address",
          "name": "token_address",
          "type": "address"
        }
      ],
      "name": "addResource",
      "outputs": [
        {
          "internalType": "uint256",
          "name": "",
          "type": "uint256"
        }
      ],
      "stateMutability": "nonpayable",
      "type": "function"
    },
    {
      "inputs": [
        {
          "internalType": "uint256",
          "name": "id",
          "type": "uint256"
        },
        {
          "internalType": "address",
          "name": "token_address",
          "type": "address"
        }
      ],
      "name": "editResource",
      "outputs": [],
      "stateMutability": "nonpayable",
      "type": "function"
    },
    {
      "inputs": [],
      "name": "deleteResource",
      "outputs": [],
      "stateMutability": "nonpayable",
      "type": "function"
    },
    {
      "inputs": [],
      "name": "getResource",
      "outputs": [
        {
          "internalType": "address[]",
          "name": "",
          "type": "address[]"
        }
      ],
      "stateMutability": "view",
      "type": "function",
      "constant": true
    },
    {
      "inputs": [
        {
          "internalType": "string",
          "name": "name",
          "type": "string"
        },
        {
          "internalType": "uint16",
          "name": "ftype",
          "type": "uint16"
        }
      ],
      "name": "mintFactory",
      "outputs": [],
      "stateMutability": "nonpayable",
      "type": "function"
    },
    {
      "inputs": [
        {
          "internalType": "uint128",
          "name": "seed",
          "type": "uint128"
        },
        {
          "internalType": "uint64",
          "name": "ftype",
          "type": "uint64"
        }
      ],
      "name": "getLandRate",
      "outputs": [
        {
          "internalType": "uint128",
          "name": "",
          "type": "uint128"
        }
      ],
      "stateMutability": "view",
      "type": "function",
      "constant": true
    },
    {
      "inputs": [
        {
          "internalType": "int32",
          "name": "x",
          "type": "int32"
        },
        {
          "internalType": "int32",
          "name": "y",
          "type": "int32"
        }
      ],
      "name": "mintLand",
      "outputs": [],
      "stateMutability": "nonpayable",
      "type": "function"
    },
    {
      "inputs": [
        {
          "internalType": "uint64",
          "name": "factory_id",
          "type": "uint64"
        },
        {
          "internalType": "int32",
          "name": "x",
          "type": "int32"
        },
        {
          "internalType": "int32",
          "name": "y",
          "type": "int32"
        }
      ],
      "name": "placeFactory",
      "outputs": [],
      "stateMutability": "nonpayable",
      "type": "function"
    },
    {
      "inputs": [
        {
          "internalType": "address",
          "name": "to",
          "type": "address"
        },
        {
          "internalType": "int32",
          "name": "x",
          "type": "int32"
        },
        {
          "internalType": "int32",
          "name": "y",
          "type": "int32"
        }
      ],
      "name": "transferLand",
      "outputs": [],
      "stateMutability": "nonpayable",
      "type": "function"
    },
    {
      "inputs": [
        {
          "internalType": "address",
          "name": "to",
          "type": "address"
        },
        {
          "internalType": "uint64",
          "name": "factory_id",
          "type": "uint64"
        }
      ],
      "name": "transferFactory",
      "outputs": [],
      "stateMutability": "nonpayable",
      "type": "function"
    },
    {
      "inputs": [],
      "name": "claimAll",
      "outputs": [],
      "stateMutability": "nonpayable",
      "type": "function"
    },
    {
      "inputs": [
        {
          "internalType": "int32",
          "name": "x",
          "type": "int32"
        },
        {
          "internalType": "int32",
          "name": "y",
          "type": "int32"
        }
      ],
      "name": "getArea",
      "outputs": [
        {
          "components": [
            {
              "internalType": "address",
              "name": "owner",
              "type": "address"
            },
            {
              "internalType": "uint128",
              "name": "seed",
              "type": "uint128"
            },
            {
              "components": [
                {
                  "internalType": "address",
                  "name": "owner",
                  "type": "address"
                },
                {
                  "internalType": "uint16",
                  "name": "ftype",
                  "type": "uint16"
                },
                {
                  "internalType": "uint16",
                  "name": "efficiency",
                  "type": "uint16"
                },
                {
                  "internalType": "int32",
                  "name": "x",
                  "type": "int32"
                },
                {
                  "internalType": "int32",
                  "name": "y",
                  "type": "int32"
                },
                {
                  "internalType": "string",
                  "name": "name",
                  "type": "string"
                }
              ],
              "internalType": "struct Marsmello.Factory",
              "name": "factory",
              "type": "tuple"
            }
          ],
          "internalType": "struct Marsmello.Relay[41][41]",
          "name": "",
          "type": "tuple[41][41]"
        }
      ],
      "stateMutability": "view",
      "type": "function",
      "constant": true
    }
  ],
  "bytecode": "0x60c060405260096080819052684d6172734d656c6c6f60b81b60a09081526200002c9160069190620004cf565b50604080518082019091526003808252624d4c4f60e81b60209092019182526200005991600791620004cf565b50633b9aca0060085567ab54a98ceb1f0ad2600a5560126200007d90600a620005d9565b6200008b906103e8620006a7565b600b556005600c556000600d55348015620000a557600080fd5b5060068054620000b590620006c9565b80601f0160208091040260200160405190810160405280929190818152602001828054620000e390620006c9565b8015620001345780601f10620001085761010080835404028352916020019162000134565b820191906000526020600020905b8154815290600101906020018083116200011657829003601f168201915b5050505050600780546200014890620006c9565b80601f01602080910402602001604051908101604052809291908181526020018280546200017690620006c9565b8015620001c75780601f106200019b57610100808354040283529160200191620001c7565b820191906000526020600020905b815481529060010190602001808311620001a957829003601f168201915b50508451620001e1935060039250602086019150620004cf565b508051620001f7906004906020840190620004cf565b505050620002146200020e6200039160201b60201c565b62000395565b6200023c33620002276012600a620005d9565b600854620002369190620006a7565b620003e7565b426009556040805160c08101825260008082526020808301828152838501838152606085018481526080860185815287518089019098526004885263159bda5960e21b8886015260a0870197885260108054600181018255965286517f1b6847dc741a1b0cd08d278845f9d819d87b734759afb55fe2de5cb82a9ae6726002909702968701805495519451935192516001600160a01b039092166001600160b01b031990961695909517600160a01b61ffff958616021765ffffffffffff60b01b1916600160b01b949093169390930263ffffffff60c01b191691909117600160c01b600392830b63ffffffff90811691909102919091176001600160e01b0316600160e01b9390920b16919091021781559351805193949362000388937f1b6847dc741a1b0cd08d278845f9d819d87b734759afb55fe2de5cb82a9ae67301929190910190620004cf565b5050506200071c565b3390565b600580546001600160a01b038381166001600160a01b0319831681179093556040519116919082907f8be0079c531659141344cd1fd0a4f28419497f9722a3daafe3b4186f6b6457e090600090a35050565b6001600160a01b038216620004425760405162461bcd60e51b815260206004820152601f60248201527f45524332303a206d696e7420746f20746865207a65726f206164647265737300604482015260640160405180910390fd5b806002600082825462000456919062000575565b90915550506001600160a01b038216600090815260208190526040812080548392906200048590849062000575565b90915550506040518181526001600160a01b038316906000907fddf252ad1be2c89b69c2b068fc378daa952ba7f163c4a11628f55a4df523b3ef9060200160405180910390a35050565b828054620004dd90620006c9565b90600052602060002090601f0160209004810192826200050157600085556200054c565b82601f106200051c57805160ff19168380011785556200054c565b828001600101855582156200054c579182015b828111156200054c5782518255916020019190600101906200052f565b506200055a9291506200055e565b5090565b5b808211156200055a57600081556001016200055f565b600082198211156200058b576200058b62000706565b500190565b600181815b80851115620005d1578160001904821115620005b557620005b562000706565b80851615620005c357918102915b93841c939080029062000595565b509250929050565b6000620005ea60ff841683620005f1565b9392505050565b6000826200060257506001620006a1565b816200061157506000620006a1565b81600181146200062a5760028114620006355762000655565b6001915050620006a1565b60ff84111562000649576200064962000706565b50506001821b620006a1565b5060208310610133831016604e8410600b84101617156200067a575081810a620006a1565b62000686838362000590565b80600019048211156200069d576200069d62000706565b0290505b92915050565b6000816000190483118215151615620006c457620006c462000706565b500290565b600181811c90821680620006de57607f821691505b602082108114156200070057634e487b7160e01b600052602260045260246000fd5b50919050565b634e487b7160e01b600052601160045260246000fd5b614849806200072c6000396000f3fe608060405234801561001057600080fd5b506004361061020b5760003560e01c806395d89b411161012a578063d1058e59116100bd578063e322fd561161008c578063f8648ad311610071578063f8648ad3146104bd578063fed84e0c146104d0578063ffc9896b146104e357600080fd5b8063e322fd56146104a2578063f2fde38b146104aa57600080fd5b8063d1058e591461042c578063dbb9c8d414610434578063dd62ed3e14610449578063dd8105ac1461048f57600080fd5b8063b37217a4116100f9578063b37217a4146103b0578063bb65dc83146103e4578063bd2a3bbd146103f9578063c6598fa61461040c57600080fd5b806395d89b411461036f578063a457c2d714610377578063a52b4efa1461038a578063a9059cbb1461039d57600080fd5b80634c8a28dc116101a257806370a082311161017157806370a08231146102f6578063715018a61461032c5780637647d049146103345780638da5cb5b1461034757600080fd5b80634c8a28dc146102b55780634e237803146102c85780635bc05aae146102db57806360449f93146102ee57600080fd5b8063313ce567116101de578063313ce5671461027657806335b85d7a14610285578063395093511461028d5780634379c02c146102a057600080fd5b806306fdde0314610210578063095ea7b31461022e57806318160ddd1461025157806323b872dd14610263575b600080fd5b610218610506565b6040516102259190614268565b60405180910390f35b61024161023c366004613b77565b610598565b6040519015158152602001610225565b6002545b604051908152602001610225565b610241610271366004613af8565b6105af565b60405160128152602001610225565b600b54610255565b61024161029b366004613b77565b61069a565b6102b36102ae366004613ba1565b6106e3565b005b6102556102c3366004613cda565b610993565b6102b36102d6366004613dc5565b610c5d565b6102556102e9366004613aaa565b6114fe565b6102b3611608565b610255610304366004613aaa565b73ffffffffffffffffffffffffffffffffffffffff1660009081526020819052604090205490565b6102b36116f4565b6102b3610342366004613c35565b611781565b60055460405173ffffffffffffffffffffffffffffffffffffffff9091168152602001610225565b610218611bbc565b610241610385366004613b77565b611bcb565b6102b3610398366004613c0b565b611ca3565b6102416103ab366004613b77565b612058565b6103c36103be366004613d89565b612065565b6040516fffffffffffffffffffffffffffffffff9091168152602001610225565b6103ec6120c1565b6040516102259190613f1e565b6102b3610407366004613aaa565b61212f565b61041f61041a366004613c0b565b6121cf565b6040516102259190613f78565b6102b36124e7565b61043c6127f1565b60405161022591906140b5565b610255610457366004613ac5565b73ffffffffffffffffffffffffffffffffffffffff918216600090815260016020908152604080832093909416825291909152205490565b6102b361049d366004613da2565b612908565b6102b36129e9565b6102b36104b8366004613aaa565b612b10565b6103c36104cb366004613d6d565b612c3d565b6102b36104de366004613b34565b612ccf565b6104f66104f1366004613aaa565b61302e565b60405161022594939291906141a5565b6060600380546105159061463a565b80601f01602080910402602001604051908101604052809291908181526020018280546105419061463a565b801561058e5780601f106105635761010080835404028352916020019161058e565b820191906000526020600020905b81548152906001019060200180831161057157829003601f168201915b5050505050905090565b60006105a5338484613213565b5060015b92915050565b60006105bc8484846133c6565b73ffffffffffffffffffffffffffffffffffffffff8416600090815260016020908152604080832033845290915290205482811015610682576040517f08c379a000000000000000000000000000000000000000000000000000000000815260206004820152602860248201527f45524332303a207472616e7366657220616d6f756e742065786365656473206160448201527f6c6c6f77616e636500000000000000000000000000000000000000000000000060648201526084015b60405180910390fd5b61068f8533858403613213565b506001949350505050565b33600081815260016020908152604080832073ffffffffffffffffffffffffffffffffffffffff8716845290915281205490916105a59185906106de908690614313565b613213565b8067ffffffffffffffff163373ffffffffffffffffffffffffffffffffffffffff1660108281548110610718576107186147d6565b600091825260209091206002909102015473ffffffffffffffffffffffffffffffffffffffff16146107a6576040517f08c379a000000000000000000000000000000000000000000000000000000000815260206004820152601f60248201527f466163746f727920646f65736e27742062656c6f6e6720746f20796f752021006044820152606401610679565b600060108367ffffffffffffffff16815481106107c5576107c56147d6565b6000918252602090912060029091020180549091506108279078010000000000000000000000000000000000000000000000008104600390810b917c01000000000000000000000000000000000000000000000000000000009004900b61367a565b61083a8367ffffffffffffffff166136e5565b80547fffffffffffffffffffffffff00000000000000000000000000000000000000001673ffffffffffffffffffffffffffffffffffffffff851617815560005b3360009081526012602052604090205481101561092a57336000908152601260205260409020805467ffffffffffffffff86169190839081106108c0576108c06147d6565b6000918252602090912060048204015460039091166008026101000a900467ffffffffffffffff1614156109185733600090815260126020526040902080548290811061090f5761090f6147d6565b5060005261092a565b806109228161468e565b91505061087b565b50505073ffffffffffffffffffffffffffffffffffffffff9190911660009081526012602090815260408220805460018101825590835291206004820401805460039092166008026101000a67ffffffffffffffff818102199093169290931692909202179055565b60055460009073ffffffffffffffffffffffffffffffffffffffff163314610a17576040517f08c379a000000000000000000000000000000000000000000000000000000000815260206004820181905260248201527f4f776e61626c653a2063616c6c6572206973206e6f7420746865206f776e65726044820152606401610679565b838214610a80576040517f08c379a000000000000000000000000000000000000000000000000000000000815260206004820152601660248201527f4172726179206c656e677468206d69736d6174636821000000000000000000006044820152606401610679565b6011805460019081018083556000928352610a9b9190614623565b90508760118281548110610ab157610ab16147d6565b906000526020600020906003020160000160006101000a8154816fffffffffffffffffffffffffffffffff02191690836fffffffffffffffffffffffffffffffff1602179055508660118281548110610b0c57610b0c6147d6565b6000918252602082206003919091020160020180547fffffffffffffffffffffffffffffffffffffffffffffffffffffffffffffff0016921515929092179091555b85811015610c515760118281548110610b6957610b696147d6565b90600052602060002090600302016001016040518060400160405280898985818110610b9757610b976147d6565b9050602002016020810190610bac9190613cbf565b6fffffffffffffffffffffffffffffffff168152602001878785818110610bd557610bd56147d6565b9050602002016020810190610bea9190613be8565b600f90810b909152825460018101845560009384526020938490208351949093015190910b6fffffffffffffffffffffffffffffffff9081167001000000000000000000000000000000000293169290921791015580610c498161468e565b915050610b4e565b50979650505050505050565b600382810b810b6000908152600f6020908152604080832085850b90940b835292905220548290829073ffffffffffffffffffffffffffffffffffffffff163314610d04576040517f08c379a000000000000000000000000000000000000000000000000000000000815260206004820152601c60248201527f4c616e6420646f65736e27742062656c6f6e6720746f20796f752021000000006044820152606401610679565b8467ffffffffffffffff163373ffffffffffffffffffffffffffffffffffffffff1660108281548110610d3957610d396147d6565b600091825260209091206002909102015473ffffffffffffffffffffffffffffffffffffffff1614610dc7576040517f08c379a000000000000000000000000000000000000000000000000000000000815260206004820152601f60248201527f466163746f727920646f65736e27742062656c6f6e6720746f20796f752021006044820152606401610679565b610dcf6124e7565b600385810b810b6000908152600f6020908152604080832088850b90940b83529290522054610e1f9074010000000000000000000000000000000000000000900467ffffffffffffffff166136e5565b610eb460108767ffffffffffffffff1681548110610e3f57610e3f6147d6565b906000526020600020906002020160000160189054906101000a900460030b60108867ffffffffffffffff1681548110610e7b57610e7b6147d6565b60009182526020909120600290910201547c0100000000000000000000000000000000000000000000000000000000900460030b61367a565b600385810b810b6000908152600f6020908152604080832088850b90940b835292905290812080547fffffffff0000000000000000ffffffffffffffffffffffffffffffffffffffff167401000000000000000000000000000000000000000067ffffffffffffffff8a1690810291909117909155601080549091908110610f3e57610f3e6147d6565b6000918252602082206002909102018054600388810b63ffffffff9081167c0100000000000000000000000000000000000000000000000000000000027bffffffffffffffffffffffffffffffffffffffffffffffffffffffff928c900b9091167801000000000000000000000000000000000000000000000000029190911677ffffffffffffffffffffffffffffffffffffffffffffffff9092169190911717815591505b815460118054909174010000000000000000000000000000000000000000900461ffff16908110611017576110176147d6565b9060005260206000209060030201600101805490508110156114f45781546011805460009274010000000000000000000000000000000000000000900461ffff16908110611067576110676147d6565b90600052602060002090600302016001018281548110611089576110896147d6565b60009182526020808320604080518082019091529201546fffffffffffffffffffffffffffffffff811683527001000000000000000000000000000000009004600f90810b810b810b918301829052919350900b1215611386578254602082015176010000000000000000000000000000000000000000000090910461ffff1690611134907fffffffffffffffffffffffffffffffffffffffffffffffffffffffffffffffff61449f565b61113e9190614555565b6fffffffffffffffffffffffffffffffff16601260003373ffffffffffffffffffffffffffffffffffffffff1673ffffffffffffffffffffffffffffffffffffffff16815260200190815260200160002060020182600001516fffffffffffffffffffffffffffffffff16815481106111b9576111b96147d6565b6000918252602090912060028204015460019091166010026101000a90046fffffffffffffffffffffffffffffffff1611611276576040517f08c379a000000000000000000000000000000000000000000000000000000000815260206004820152602d60248201527f4e6f7420656e6f756768207265736f757263652073747265616d20746f20706c60448201527f61636520666163746f72792021000000000000000000000000000000000000006064820152608401610679565b8254602082015176010000000000000000000000000000000000000000000090910461ffff16906112c7907fffffffffffffffffffffffffffffffffffffffffffffffffffffffffffffffff61449f565b6112d19190614555565b33600090815260126020526040902082516002909101805490916fffffffffffffffffffffffffffffffff1690811061130c5761130c6147d6565b90600052602060002090600291828204019190066010028282829054906101000a90046fffffffffffffffffffffffffffffffff1661134b91906145f2565b92506101000a8154816fffffffffffffffffffffffffffffffff02191690836fffffffffffffffffffffffffffffffff1602179055506114e1565b600388810b810b6000908152600f602090815260408083208b850b90940b8352929052206001015483546064916113ed916fffffffffffffffffffffffffffffffff9091169074010000000000000000000000000000000000000000900461ffff16612c3d565b8454602084015161141c91760100000000000000000000000000000000000000000000900461ffff1690614555565b6114269190614555565b611430919061432b565b33600090815260126020526040902082516002909101805490916fffffffffffffffffffffffffffffffff1690811061146b5761146b6147d6565b90600052602060002090600291828204019190066010028282829054906101000a90046fffffffffffffffffffffffffffffffff166114aa91906142df565b92506101000a8154816fffffffffffffffffffffffffffffffff02191690836fffffffffffffffffffffffffffffffff1602179055505b50806114ec8161468e565b915050610fe4565b5050505050505050565b60055460009073ffffffffffffffffffffffffffffffffffffffff163314611582576040517f08c379a000000000000000000000000000000000000000000000000000000000815260206004820181905260248201527f4f776e61626c653a2063616c6c6572206973206e6f7420746865206f776e65726044820152606401610679565b600e80546001808201835560008390527fbb7b4a454dc3493923482f07822329ed19e8244eff582cc204f8554c3620c3fd90910180547fffffffffffffffffffffffff00000000000000000000000000000000000000001673ffffffffffffffffffffffffffffffffffffffff861617905590546116009190614623565b90505b919050565b60055473ffffffffffffffffffffffffffffffffffffffff163314611689576040517f08c379a000000000000000000000000000000000000000000000000000000000815260206004820181905260248201527f4f776e61626c653a2063616c6c6572206973206e6f7420746865206f776e65726044820152606401610679565b600e80548061169a5761169a6147a7565b60008281526020902081017fffffffffffffffffffffffffffffffffffffffffffffffffffffffffffffffff90810180547fffffffffffffffffffffffff0000000000000000000000000000000000000000169055019055565b60055473ffffffffffffffffffffffffffffffffffffffff163314611775576040517f08c379a000000000000000000000000000000000000000000000000000000000815260206004820181905260248201527f4f776e61626c653a2063616c6c6572206973206e6f7420746865206f776e65726044820152606401610679565b61177f6000613822565b565b60118161ffff1681548110611798576117986147d6565b60009182526020909120600390910201546fffffffffffffffffffffffffffffffff166117e73373ffffffffffffffffffffffffffffffffffffffff1660009081526020819052604090205490565b1015611875576040517f08c379a000000000000000000000000000000000000000000000000000000000815260206004820152602b60248201527f4e6f7420656e6f756768204d4c4f20696e20796f75722077616c6c657420746f60448201527f20627579206c616e6420210000000000000000000000000000000000000000006064820152608401610679565b61187e3361212f565b60006033611890601080549050612065565b61189a91906146eb565b6118a59060326142df565b905060106040518060c001604052803373ffffffffffffffffffffffffffffffffffffffff1681526020018461ffff1681526020018361ffff168152602001600060030b8152602001600060030b815260200186868080601f0160208091040260200160405190810160405280939291908181526020018383808284376000920182905250939094525050835460018082018655948252602091829020845160029092020180548584015160408701516060880151608089015173ffffffffffffffffffffffffffffffffffffffff9096167fffffffffffffffffffff00000000000000000000000000000000000000000000909416939093177401000000000000000000000000000000000000000061ffff93841602177fffffffff000000000000ffffffffffffffffffffffffffffffffffffffffffff1676010000000000000000000000000000000000000000000092909116919091027fffffffff00000000ffffffffffffffffffffffffffffffffffffffffffffffff16177801000000000000000000000000000000000000000000000000600392830b63ffffffff90811691909102919091177bffffffffffffffffffffffffffffffffffffffffffffffffffffffff167c01000000000000000000000000000000000000000000000000000000009490920b169290920291909117815560a0840151805194959194611ab79450918501920190613899565b505050611afe333060118561ffff1681548110611ad657611ad66147d6565b60009182526020909120600390910201546fffffffffffffffffffffffffffffffff166133c6565b336000908152601260205260409020601054611b1c90600190614623565b8154600180820184556000938452602084206004830401805460039093166008026101000a67ffffffffffffffff8181021990941694909316929092029290921790556010548291611b6d91614623565b67ffffffffffffffff167f285583692ea63f5b9b687c7debda647ca51921848b1068167d90e533ca544e4f3386868a8a604051611bae959493929190613e9b565b60405180910390a450505050565b6060600480546105159061463a565b33600090815260016020908152604080832073ffffffffffffffffffffffffffffffffffffffff8616845290915281205482811015611c8c576040517f08c379a000000000000000000000000000000000000000000000000000000000815260206004820152602560248201527f45524332303a2064656372656173656420616c6c6f77616e63652062656c6f7760448201527f207a65726f0000000000000000000000000000000000000000000000000000006064820152608401610679565b611c993385858403613213565b5060019392505050565b8160030b6000141580611cba57508060030b600014155b611d20576040517f08c379a000000000000000000000000000000000000000000000000000000000815260206004820152601160248201527f43616e27742062757920737061776e20210000000000000000000000000000006044820152606401610679565b600382810b810b6000908152600f6020908152604080832085850b90940b8352929052205473ffffffffffffffffffffffffffffffffffffffff1615611dc2576040517f08c379a000000000000000000000000000000000000000000000000000000000815260206004820152601560248201527f4c616e6420616c726561647920657869737473202100000000000000000000006044820152606401610679565b600b54336000908152602081905260409020541015611e63576040517f08c379a000000000000000000000000000000000000000000000000000000000815260206004820152602b60248201527f4e6f7420656e6f756768204d4c4f20696e20796f75722077616c6c657420746f60448201527f20627579206c616e6420210000000000000000000000000000000000000000006064820152608401610679565b611e6c3361212f565b611e793330600b546133c6565b6064600b54611e88919061435a565b600b6000828254611e999190614313565b925050819055506000611ead600b54612065565b6040805160608101825233808252600060208084018281526fffffffffffffffffffffffffffffffff87811686880181815260038d810b80820b8852600f87528a88208e830b80840b8a529088528b89209a518b54975167ffffffffffffffff1674010000000000000000000000000000000000000000027fffffffff0000000000000000000000000000000000000000000000000000000090981673ffffffffffffffffffffffffffffffffffffffff90911617969096178a5591516001998a018054919095167fffffffffffffffffffffffffffffffff0000000000000000000000000000000090911617909355868652601285528886208951808b018b52828152808701868152918a0180549a8b01815588528688209051990180549151850b63ffffffff908116640100000000027fffffffffffffffffffffffffffffffffffffffffffffffff00000000000000009093169a90950b9490941698909817979097179091558651938452918301919091529495509093927f22a2541ab4e611e25df40b5a2e6ba4bb437eccc83f6479832c7112452356804c910160405180910390a4505050565b60006105a53384846133c6565b6000612072600143614623565b60408051914060208301528101839052606001604080517fffffffffffffffffffffffffffffffffffffffffffffffffffffffffffffffe0818403018152919052805160209091012092915050565b6060600e80548060200260200160405190810160405280929190818152602001828054801561058e57602002820191906000526020600020905b815473ffffffffffffffffffffffffffffffffffffffff1681526001909101906020018083116120fb575050505050905090565b5b600c5473ffffffffffffffffffffffffffffffffffffffff821660009081526012602052604090206002015410156121cc5773ffffffffffffffffffffffffffffffffffffffff811660009081526012602090815260408220600290810180546001808201835591855292909320908204018054929091166010026101000a6fffffffffffffffffffffffffffffffff02199091169055612130565b50565b6121d761391d565b6121df61391d565b60005b60298163ffffffff1610156124df5760005b60298163ffffffff1610156124cc576000600f818461221460148b61458d565b61221e919061427b565b60030b60030b8152602001908152602001600020600083601489612242919061458d565b61224c919061427b565b600390810b900b81526020808201929092526040908101600020815160608082018452825473ffffffffffffffffffffffffffffffffffffffff808216845267ffffffffffffffff7401000000000000000000000000000000000000000090920482168488019081526001909501546fffffffffffffffffffffffffffffffff9081168588019081528751948501885285519092168452905116958201959095529151601080549296509294938501931690811061230c5761230c6147d6565b60009182526020918290206040805160c0810182526002909302909101805473ffffffffffffffffffffffffffffffffffffffff8116845261ffff74010000000000000000000000000000000000000000820481169585019590955276010000000000000000000000000000000000000000000081049094169183019190915278010000000000000000000000000000000000000000000000008304600390810b810b810b60608401527c0100000000000000000000000000000000000000000000000000000000909304830b830b90920b608082015260018201805491929160a0840191906123fb9061463a565b80601f01602080910402602001604051908101604052809291908181526020018280546124279061463a565b80156124745780601f1061244957610100808354040283529160200191612474565b820191906000526020600020905b81548152906001019060200180831161245757829003601f168201915b505050505081525050815250848463ffffffff1660298110612498576124986147d6565b60200201518363ffffffff16602981106124b4576124b46147d6565b602002015250806124c4816146c7565b9150506121f4565b50806124d7816146c7565b9150506121e2565b509392505050565b3360009081526012602090815260408083206002018054825181850281018501909352808352919290919083018282801561258557602002820191906000526020600020906000905b82829054906101000a90046fffffffffffffffffffffffffffffffff166fffffffffffffffffffffffffffffffff1681526020019060100190602082600f010492830192600103820291508084116125305790505b505033600090815260126020526040812060030154949550936125b7935067ffffffffffffffff1691504290506145f2565b905062015180816fffffffffffffffffffffffffffffffff1611156125dc5750620151805b60005b825181101561263657818382815181106125fb576125fb6147d6565b6020026020010181815161260f9190614555565b6fffffffffffffffffffffffffffffffff169052508061262e8161468e565b9150506125df565b5060005b82518110156127a8576000838281518110612657576126576147d6565b60200260200101516fffffffffffffffffffffffffffffffff16111561279657600e818154811061268a5761268a6147d6565b9060005260206000200160009054906101000a900473ffffffffffffffffffffffffffffffffffffffff1673ffffffffffffffffffffffffffffffffffffffff1663449a52f8338584815181106126e3576126e36147d6565b60200260200101516040518363ffffffff1660e01b815260040161273b92919073ffffffffffffffffffffffffffffffffffffffff9290921682526fffffffffffffffffffffffffffffffff16602082015260400190565b602060405180830381600087803b15801561275557600080fd5b505af1158015612769573d6000803e3d6000fd5b505050506040513d601f19601f8201168201806040525081019061278d9190613bcb565b61279657600080fd5b806127a08161468e565b91505061263a565b505033600090815260126020526040902060030180547fffffffffffffffffffffffffffffffffffffffffffffffff0000000000000000164267ffffffffffffffff1617905550565b60606011805480602002602001604051908101604052809291908181526020016000905b828210156128ff5760008481526020808220604080516060810182526003870290920180546fffffffffffffffffffffffffffffffff168352600181018054835181870281018701909452808452939591948681019491929084015b828210156128d657600084815260209081902060408051808201909152908401546fffffffffffffffffffffffffffffffff811682527001000000000000000000000000000000009004600f90810b810b900b81830152825260019092019101612871565b505050908252506002919091015460ff1615156020918201529082526001929092019101612815565b50505050905090565b60055473ffffffffffffffffffffffffffffffffffffffff163314612989576040517f08c379a000000000000000000000000000000000000000000000000000000000815260206004820181905260248201527f4f776e61626c653a2063616c6c6572206973206e6f7420746865206f776e65726044820152606401610679565b80600e838154811061299d5761299d6147d6565b9060005260206000200160006101000a81548173ffffffffffffffffffffffffffffffffffffffff021916908373ffffffffffffffffffffffffffffffffffffffff1602179055505050565b60055473ffffffffffffffffffffffffffffffffffffffff163314612a6a576040517f08c379a000000000000000000000000000000000000000000000000000000000815260206004820181905260248201527f4f776e61626c653a2063616c6c6572206973206e6f7420746865206f776e65726044820152606401610679565b6011805480612a7b57612a7b6147a7565b60008281526020812060037fffffffffffffffffffffffffffffffffffffffffffffffffffffffffffffffff9093019283020180547fffffffffffffffffffffffffffffffff0000000000000000000000000000000016815590612ae2600183018261394b565b5060020180547fffffffffffffffffffffffffffffffffffffffffffffffffffffffffffffff001690559055565b60055473ffffffffffffffffffffffffffffffffffffffff163314612b91576040517f08c379a000000000000000000000000000000000000000000000000000000000815260206004820181905260248201527f4f776e61626c653a2063616c6c6572206973206e6f7420746865206f776e65726044820152606401610679565b73ffffffffffffffffffffffffffffffffffffffff8116612c34576040517f08c379a000000000000000000000000000000000000000000000000000000000815260206004820152602660248201527f4f776e61626c653a206e6577206f776e657220697320746865207a65726f206160448201527f64647265737300000000000000000000000000000000000000000000000000006064820152608401610679565b6121cc81613822565b600060118267ffffffffffffffff1681548110612c5c57612c5c6147d6565b600091825260209091206002600390920201015460ff16612c7f575060646105a9565b6033612c8c60238461472e565b612c9790600a6143cf565b612cb3906fffffffffffffffffffffffffffffffff861661435a565b612cbd919061471a565b612cc8906032614313565b9392505050565b600382810b810b6000908152600f6020908152604080832085850b90940b835292905220548290829073ffffffffffffffffffffffffffffffffffffffff163314612d76576040517f08c379a000000000000000000000000000000000000000000000000000000000815260206004820152601c60248201527f4c616e6420646f65736e27742062656c6f6e6720746f20796f752021000000006044820152606401610679565b600384810b810b6000908152600f6020908152604080832087850b90940b83529290522054612dc69074010000000000000000000000000000000000000000900467ffffffffffffffff166136e5565b612dd0848461367a565b600384810b810b6000908152600f6020908152604080832087850b90940b835292905290812080547fffffffffffffffffffffffff00000000000000000000000000000000000000001673ffffffffffffffffffffffffffffffffffffffff88161790555b33600090815260126020526040902060010154811015612f89573360009081526012602052604090206001018054600387900b919083908110612e7a57612e7a6147d6565b600091825260209091200154600390810b900b148015612edd57503360009081526012602052604090206001018054600386900b919083908110612ec057612ec06147d6565b6000918252602090912001546401000000009004600390810b900b145b15612f7757604080518082018252600080825260208083018290523382526012905291909120600101805483908110612f1857612f186147d6565b60009182526020918290208351910180549390920151600390810b63ffffffff908116640100000000027fffffffffffffffffffffffffffffffffffffffffffffffff00000000000000009095169290910b1617919091179055612f89565b80612f818161468e565b915050612e35565b50505073ffffffffffffffffffffffffffffffffffffffff90921660009081526012602090815260408083208151808301909252600394850b825294840b81830190815260019586018054968701815584529190922091519190930180549351830b63ffffffff908116640100000000027fffffffffffffffffffffffffffffffffffffffffffffffff00000000000000009095169290930b90921617919091179055565b73ffffffffffffffffffffffffffffffffffffffff8116600090815260126020908152604080832060038101548154835181860281018601909452808452606095869586959194936001850193600286019367ffffffffffffffff909216928691908301828280156130f357602002820191906000526020600020906000905b82829054906101000a900467ffffffffffffffff1667ffffffffffffffff16815260200190600801906020826007010492830192600103820291508084116130ae5790505b5050505050935082805480602002602001604051908101604052809291908181526020016000905b828210156131685760008481526020908190206040805180820190915290840154600381810b810b810b8352640100000000909104810b810b900b8183015282526001909201910161311b565b505050509250818054806020026020016040519081016040528092919081815260200182805480156131fd57602002820191906000526020600020906000905b82829054906101000a90046fffffffffffffffffffffffffffffffff166fffffffffffffffffffffffffffffffff1681526020019060100190602082600f010492830192600103820291508084116131a85790505b5050505050915093509350935093509193509193565b73ffffffffffffffffffffffffffffffffffffffff83166132b5576040517f08c379a0000000000000000000000000000000000000000000000000000000008152602060048201526024808201527f45524332303a20617070726f76652066726f6d20746865207a65726f2061646460448201527f72657373000000000000000000000000000000000000000000000000000000006064820152608401610679565b73ffffffffffffffffffffffffffffffffffffffff8216613358576040517f08c379a000000000000000000000000000000000000000000000000000000000815260206004820152602260248201527f45524332303a20617070726f766520746f20746865207a65726f20616464726560448201527f73730000000000000000000000000000000000000000000000000000000000006064820152608401610679565b73ffffffffffffffffffffffffffffffffffffffff83811660008181526001602090815260408083209487168084529482529182902085905590518481527f8c5be1e5ebec7d5bd14f71427d1e84f3dd0314c0f7b2291e5b200ac8c7c3b925910160405180910390a3505050565b73ffffffffffffffffffffffffffffffffffffffff8316613469576040517f08c379a000000000000000000000000000000000000000000000000000000000815260206004820152602560248201527f45524332303a207472616e736665722066726f6d20746865207a65726f20616460448201527f64726573730000000000000000000000000000000000000000000000000000006064820152608401610679565b73ffffffffffffffffffffffffffffffffffffffff821661350c576040517f08c379a000000000000000000000000000000000000000000000000000000000815260206004820152602360248201527f45524332303a207472616e7366657220746f20746865207a65726f206164647260448201527f65737300000000000000000000000000000000000000000000000000000000006064820152608401610679565b73ffffffffffffffffffffffffffffffffffffffff8316600090815260208190526040902054818110156135c2576040517f08c379a000000000000000000000000000000000000000000000000000000000815260206004820152602660248201527f45524332303a207472616e7366657220616d6f756e742065786365656473206260448201527f616c616e636500000000000000000000000000000000000000000000000000006064820152608401610679565b73ffffffffffffffffffffffffffffffffffffffff808516600090815260208190526040808220858503905591851681529081208054849290613606908490614313565b925050819055508273ffffffffffffffffffffffffffffffffffffffff168473ffffffffffffffffffffffffffffffffffffffff167fddf252ad1be2c89b69c2b068fc378daa952ba7f163c4a11628f55a4df523b3ef8460405161366c91815260200190565b60405180910390a350505050565b8160030b600014158061369157508060030b600014155b156136e157600382810b810b6000908152600f6020908152604080832085850b90940b83529290522080547fffffffff0000000000000000ffffffffffffffffffffffffffffffffffffffff1690555b5050565b801580159061378c575060108181548110613702576137026147d6565b600091825260209091206002909102015478010000000000000000000000000000000000000000000000009004600390810b900b15158061378c575060108181548110613751576137516147d6565b60009182526020909120600290910201547c01000000000000000000000000000000000000000000000000000000009004600390810b900b15155b156121cc576000601082815481106137a6576137a66147d6565b906000526020600020906002020160000160186101000a81548163ffffffff021916908360030b63ffffffff1602179055506000601082815481106137ed576137ed6147d6565b9060005260206000209060020201600001601c6101000a81548163ffffffff021916908360030b63ffffffff16021790555050565b6005805473ffffffffffffffffffffffffffffffffffffffff8381167fffffffffffffffffffffffff0000000000000000000000000000000000000000831681179093556040519116919082907f8be0079c531659141344cd1fd0a4f28419497f9722a3daafe3b4186f6b6457e090600090a35050565b8280546138a59061463a565b90600052602060002090601f0160209004810192826138c7576000855561390d565b82601f106138e057805160ff191683800117855561390d565b8280016001018555821561390d579182015b8281111561390d5782518255916020019190600101906138f2565b50613919929150613965565b5090565b6040518061052001604052806029905b61393561397a565b81526020019060019003908161392d5790505090565b50805460008255906000526020600020908101906121cc91905b5b808211156139195760008155600101613966565b6040518061052001604052806029905b6139da604080516060808201835260008083526020808401829052845160c081018652828152908101829052808501829052808301829052608081019190915260a0810191909152909182015290565b81526020019060019003908161398a5790505090565b803573ffffffffffffffffffffffffffffffffffffffff8116811461160357600080fd5b60008083601f840112613a2657600080fd5b50813567ffffffffffffffff811115613a3e57600080fd5b6020830191508360208260051b8501011115613a5957600080fd5b9250929050565b8035600381900b811461160357600080fd5b80356fffffffffffffffffffffffffffffffff8116811461160357600080fd5b803567ffffffffffffffff8116811461160357600080fd5b600060208284031215613abc57600080fd5b612cc8826139f0565b60008060408385031215613ad857600080fd5b613ae1836139f0565b9150613aef602084016139f0565b90509250929050565b600080600060608486031215613b0d57600080fd5b613b16846139f0565b9250613b24602085016139f0565b9150604084013590509250925092565b600080600060608486031215613b4957600080fd5b613b52846139f0565b9250613b6060208501613a60565b9150613b6e60408501613a60565b90509250925092565b60008060408385031215613b8a57600080fd5b613b93836139f0565b946020939093013593505050565b60008060408385031215613bb457600080fd5b613bbd836139f0565b9150613aef60208401613a92565b600060208284031215613bdd57600080fd5b8151612cc881614805565b600060208284031215613bfa57600080fd5b813580600f0b8114612cc857600080fd5b60008060408385031215613c1e57600080fd5b613c2783613a60565b9150613aef60208401613a60565b600080600060408486031215613c4a57600080fd5b833567ffffffffffffffff80821115613c6257600080fd5b818601915086601f830112613c7657600080fd5b813581811115613c8557600080fd5b876020828501011115613c9757600080fd5b6020928301955093505084013561ffff81168114613cb457600080fd5b809150509250925092565b600060208284031215613cd157600080fd5b612cc882613a72565b60008060008060008060808789031215613cf357600080fd5b613cfc87613a72565b95506020870135613d0c81614805565b9450604087013567ffffffffffffffff80821115613d2957600080fd5b613d358a838b01613a14565b90965094506060890135915080821115613d4e57600080fd5b50613d5b89828a01613a14565b979a9699509497509295939492505050565b60008060408385031215613d8057600080fd5b613bbd83613a72565b600060208284031215613d9b57600080fd5b5035919050565b60008060408385031215613db557600080fd5b82359150613aef602084016139f0565b600080600060608486031215613dda57600080fd5b613b5284613a92565b600081518084526020808501945080840160005b83811015613e255781516fffffffffffffffffffffffffffffffff1687529582019590820190600101613df7565b509495945050505050565b6000815180845260005b81811015613e5657602081850181015186830182015201613e3a565b81811115613e68576000602083870101525b50601f017fffffffffffffffffffffffffffffffffffffffffffffffffffffffffffffffe0169290920160200192915050565b73ffffffffffffffffffffffffffffffffffffffff86168152600061ffff808716602084015280861660408401525060806060830152826080830152828460a0840137600060a0848401015260a07fffffffffffffffffffffffffffffffffffffffffffffffffffffffffffffffe0601f85011683010190509695505050505050565b6020808252825182820181905260009190848201906040850190845b81811015613f6c57835173ffffffffffffffffffffffffffffffffffffffff1683529284019291840191600101613f3a565b50909695505050505050565b602080825260009061054083018382018584805b6029808210613f9b57506140a8565b8886037fffffffffffffffffffffffffffffffffffffffffffffffffffffffffffffffe00185528351866105208101855b848110156140925789820383528351805173ffffffffffffffffffffffffffffffffffffffff90811684528c8201516fffffffffffffffffffffffffffffffff168d8501526040918201516060838601819052815190921682860152808e015161ffff908116608080880191909152938201511660a08087019190915291810151600390810b60c08088019190915293820151900b60e0860152015161010084019190915261407f610120840182613e30565b948c0194938c0193925050600101613fcc565b5097505050938601935091850191600101613f8c565b5092979650505050505050565b60006020808301818452808551808352604092508286019150828160051b8701018488016000805b84811015614196578984037fffffffffffffffffffffffffffffffffffffffffffffffffffffffffffffffc0018652825180516fffffffffffffffffffffffffffffffff90811686528982015160608b880181905281519088018190526080880192918c01919086905b808210156141755783518051841686528e0151600f0b8e860152938c0193928d019260019190910190614147565b505050509088015115159488019490945294870194918701916001016140dd565b50919998505050505050505050565b6080808252855190820181905260009060209060a0840190828901845b828110156141e857815167ffffffffffffffff16845292840192908401906001016141c2565b5050508381038285015286518082528783019183019060005b818110156142305783518051600390810b855290860151900b8584015292840192604090920191600101614201565b505084810360408601526142448188613de3565b935050505061425f606083018467ffffffffffffffff169052565b95945050505050565b602081526000612cc86020830184613e30565b60008160030b8360030b6000821282637fffffff038213811516156142a2576142a2614749565b827fffffffffffffffffffffffffffffffffffffffffffffffffffffffff800000000382128116156142d6576142d6614749565b50019392505050565b60006fffffffffffffffffffffffffffffffff80831681851680830382111561430a5761430a614749565b01949350505050565b6000821982111561432657614326614749565b500190565b60006fffffffffffffffffffffffffffffffff8084168061434e5761434e614778565b92169190910492915050565b60008261436957614369614778565b500490565b600181815b808511156143c757817fffffffffffffffffffffffffffffffffffffffffffffffffffffffffffffffff048211156143ad576143ad614749565b808516156143ba57918102915b93841c9390800290614373565b509250929050565b6000612cc867ffffffffffffffff8416836000826143ef575060016105a9565b816143fc575060006105a9565b8160018114614412576002811461441c57614438565b60019150506105a9565b60ff84111561442d5761442d614749565b50506001821b6105a9565b5060208310610133831016604e8410600b841016171561445b575081810a6105a9565b614465838361436e565b807fffffffffffffffffffffffffffffffffffffffffffffffffffffffffffffffff0482111561449757614497614749565b029392505050565b600081600f0b83600f0b6f7fffffffffffffffffffffffffffffff6000821360008413838304851182821616156144d8576144d8614749565b7fffffffffffffffffffffffffffffffff80000000000000000000000000000000600085128682058612818416161561451357614513614749565b6000871292508582058712848416161561452f5761452f614749565b8585058712818416161561454557614545614749565b5050509290910295945050505050565b60006fffffffffffffffffffffffffffffffff8083168185168183048111821515161561458457614584614749565b02949350505050565b60008160030b8360030b60008112817fffffffffffffffffffffffffffffffffffffffffffffffffffffffff80000000018312811516156145d0576145d0614749565b81637fffffff0183138116156145e8576145e8614749565b5090039392505050565b60006fffffffffffffffffffffffffffffffff8381169083168181101561461b5761461b614749565b039392505050565b60008282101561463557614635614749565b500390565b600181811c9082168061464e57607f821691505b60208210811415614688577f4e487b7100000000000000000000000000000000000000000000000000000000600052602260045260246000fd5b50919050565b60007fffffffffffffffffffffffffffffffffffffffffffffffffffffffffffffffff8214156146c0576146c0614749565b5060010190565b600063ffffffff808316818114156146e1576146e1614749565b6001019392505050565b60006fffffffffffffffffffffffffffffffff8084168061470e5761470e614778565b92169190910692915050565b60008261472957614729614778565b500690565b600067ffffffffffffffff8084168061470e5761470e614778565b7f4e487b7100000000000000000000000000000000000000000000000000000000600052601160045260246000fd5b7f4e487b7100000000000000000000000000000000000000000000000000000000600052601260045260246000fd5b7f4e487b7100000000000000000000000000000000000000000000000000000000600052603160045260246000fd5b7f4e487b7100000000000000000000000000000000000000000000000000000000600052603260045260246000fd5b80151581146121cc57600080fdfea26469706673582212205f444cff4a28581a17a3da8486009d1a87d330fe8360767f9f7714b9c27c936664736f6c63430008060033",
  "immutableReferences": {},
  "source": "// SPDX-License-Identifier: MIT\npragma solidity ^0.8.2;\n\nimport \"@openzeppelin/contracts/token/ERC20/ERC20.sol\";\nimport \"@openzeppelin/contracts/access/Ownable.sol\";\n\ninterface ERC20I {\n    function mintTo(address to, uint256 amount) external returns (bool);\n}\n\ncontract Marsmello is ERC20, Ownable {\n    constructor() ERC20(m_name, m_symbol) {\n        _mint(msg.sender, m_supply * 10**decimals());\n        deploy_time = block.timestamp;\n        factories.push(Factory(address(0), 0, 0, 0, 0, \"Void\"));\n    }\n\n    string m_name = \"MarsMello\";\n    string m_symbol = \"MLO\";\n    uint256 m_supply = 10**9;\n    uint256 deploy_time;\n    uint256 randomness = 12345678901234567890;\n    uint256 land_price = 1000 * 10**decimals();\n    uint256 resources_count = 5;\n    uint256 factory_count = 0;\n\n    struct Land {\n        address owner;\n        uint64 factory;\n        uint128 seed;\n    }\n    struct Factory {\n        address owner;\n        uint16 ftype;\n        uint16 efficiency;\n        int32 x;\n        int32 y;\n        string name;\n    }\n    struct User {\n        uint64[] factories;\n        CoOrdinates[] lands;\n        uint128[] flows;\n        uint64 lastclaimed;\n    }\n    struct CoOrdinates {\n        int32 x;\n        int32 y;\n    }\n    struct Relay {\n        address owner;\n        uint128 seed;\n        Factory factory;\n    }\n    struct Resource {\n        uint128 id;\n        int128 rate;\n    }\n    struct Factory_type {\n        uint128 price;\n        Resource[] resources;\n        bool land_dependent;\n    }\n\n    address[] private tokens;\n    mapping(int32 => mapping(int32 => Land)) private lands;\n    Factory[] private factories;\n    Factory_type[] private factory_types;\n    mapping(address => User) private users;\n\n    modifier landOwner(int32 x, int32 y) {\n        require(\n            lands[x][y].owner == msg.sender,\n            \"Land doesn't belong to you !\"\n        );\n        _;\n    }\n    modifier factoryOwner(uint256 id) {\n        require(\n            factories[id].owner == msg.sender,\n            \"Factory doesn't belong to you !\"\n        );\n        _;\n    }\n\n    event LandE(\n        int32 indexed x,\n        int32 indexed y,\n        address indexed owner,\n        uint64 factory,\n        uint128 seed\n    );\n\n    event FactoryE(\n        uint64 indexed id,\n        address owner,\n        uint16 ftype,\n        uint16 efficiency,\n        int32 indexed x,\n        int32 indexed y,\n        string name\n    );\n\n    function chechUser(address a) public {\n        while (users[a].flows.length < resources_count) {\n            users[a].flows.push(0);\n        }\n    }\n\n    function getUserData(address user)\n        public\n        view\n        returns (\n            uint64[] memory,\n            CoOrdinates[] memory,\n            uint128[] memory,\n            uint64\n        )\n    {\n        return (\n            users[user].factories,\n            users[user].lands,\n            users[user].flows,\n            users[user].lastclaimed\n        );\n    }\n\n    function getLandPrice() public view returns (uint256) {\n        return (land_price);\n    }\n\n    function getRandomNumber(uint256 rand) public view returns (uint128) {\n        return\n            uint128(\n                uint256(\n                    keccak256(\n                        abi.encodePacked(blockhash(block.number - 1), rand)\n                    )\n                )\n            );\n    }\n\n    function addFactoryType(\n        uint128 price,\n        bool land_dependent,\n        uint128[] calldata r1,\n        int128[] calldata r2\n    ) public onlyOwner returns (uint256) {\n        require(r1.length == r2.length, \"Array length mismatch!\");\n        factory_types.push();\n        uint256 id = factory_types.length - 1;\n        factory_types[id].price = price;\n        factory_types[id].land_dependent = land_dependent;\n        for (uint256 i = 0; i < r1.length; i++) {\n            factory_types[id].resources.push(Resource(r1[i], r2[i]));\n        }\n        return id;\n    }\n\n    function deletefactoryType() public onlyOwner {\n        factory_types.pop();\n    }\n\n    function getFactoryType() public view returns (Factory_type[] memory) {\n        return factory_types;\n    }\n\n    function addResource(address token_address)\n        public\n        onlyOwner\n        returns (uint256)\n    {\n        tokens.push(token_address);\n        return (tokens.length - 1);\n    }\n\n    function editResource(uint256 id, address token_address) public onlyOwner {\n        tokens[id] = token_address;\n    }\n\n    function deleteResource() public onlyOwner {\n        tokens.pop();\n    }\n\n    function getResource() public view returns (address[] memory) {\n        return tokens;\n    }\n\n    function mintFactory(string calldata name, uint16 ftype) public {\n        require(\n            balanceOf(msg.sender) >= factory_types[ftype].price,\n            \"Not enough MLO in your wallet to buy land !\"\n        );\n        chechUser(msg.sender);\n        uint16 efficiency = uint16(\n            50 + (getRandomNumber(factories.length) % 51)\n        );\n        factories.push(Factory(msg.sender, ftype, efficiency, 0, 0, name));\n        _transfer(msg.sender, address(this), factory_types[ftype].price);\n        users[msg.sender].factories.push(uint64(factories.length - 1));\n        emit FactoryE(\n            uint64(factories.length - 1),\n            msg.sender,\n            ftype,\n            efficiency,\n            0,\n            0,\n            name\n        );\n    }\n\n    function getLandRate(uint128 seed, uint64 ftype)\n        public\n        view\n        returns (uint128)\n    {\n        if (factory_types[ftype].land_dependent == false) return 100;\n        return uint128(50 + ((seed / (10**(ftype % 35))) % 51));\n    }\n\n    function mintLand(int32 x, int32 y) public {\n        require(x != 0 || y != 0, \"Can't buy spawn !\");\n        require(lands[x][y].owner == address(0), \"Land already exists !\");\n        require(\n            balanceOf(msg.sender) >= land_price,\n            \"Not enough MLO in your wallet to buy land !\"\n        );\n        chechUser(msg.sender);\n        _transfer(msg.sender, address(this), land_price);\n        land_price += land_price / 100;\n        uint128 seed = getRandomNumber(land_price);\n        lands[x][y] = Land(msg.sender, 0, seed);\n        users[msg.sender].lands.push(CoOrdinates(x, y));\n        emit LandE(x, y, msg.sender, 0, seed);\n    }\n\n    function _clearLand(int32 x, int32 y) private {\n        if (x != 0 || y != 0) lands[x][y].factory = 0;\n    }\n\n    function _clearFactory(uint256 id) private {\n        if (id != 0 && (factories[id].x != 0 || factories[id].y != 0)) {\n            factories[id].x = 0;\n            factories[id].y = 0;\n        }\n    }\n\n    function placeFactory(\n        uint64 factory_id,\n        int32 x,\n        int32 y\n    ) public landOwner(x, y) factoryOwner(factory_id) {\n        claimAll();\n        _clearFactory(lands[x][y].factory);\n        _clearLand(factories[factory_id].x, factories[factory_id].y);\n\n        lands[x][y].factory = factory_id;\n        Factory storage f = factories[factory_id];\n        f.x = x;\n        f.y = y;\n        for (uint256 i = 0; i < factory_types[f.ftype].resources.length; i++) {\n            Resource memory r = factory_types[f.ftype].resources[i];\n            if (r.rate < 0) {\n                require(\n                    users[msg.sender].flows[r.id] >\n                        uint128(-1 * r.rate) * uint128(f.efficiency),\n                    \"Not enough resource stream to place factory !\"\n                );\n                users[msg.sender].flows[r.id] -=\n                    uint128(-1 * r.rate) *\n                    uint128(f.efficiency);\n            } else {\n                users[msg.sender].flows[r.id] +=\n                    (uint128(r.rate) *\n                        uint128(f.efficiency) *\n                        getLandRate(lands[x][y].seed, f.ftype)) /\n                    100;\n            }\n        }\n    }\n\n    function transferLand(\n        address to,\n        int32 x,\n        int32 y\n    ) public landOwner(x, y) {\n        _clearFactory(lands[x][y].factory);\n        _clearLand(x, y);\n        lands[x][y].owner = to;\n        for (uint256 i = 0; i < users[msg.sender].lands.length; i++) {\n            if (\n                users[msg.sender].lands[i].x == x &&\n                users[msg.sender].lands[i].y == y\n            ) {\n                users[msg.sender].lands[i] = CoOrdinates(0, 0);\n                break;\n            }\n        }\n        users[to].lands.push(CoOrdinates(x, y));\n    }\n\n    function transferFactory(address to, uint64 factory_id)\n        public\n        factoryOwner(factory_id)\n    {\n        Factory storage f = factories[factory_id];\n        _clearLand(f.x, f.y);\n        _clearFactory(factory_id);\n        f.owner = to;\n        for (uint256 i = 0; i < users[msg.sender].factories.length; i++) {\n            if (users[msg.sender].factories[i] == factory_id) {\n                users[msg.sender].factories[i] == 0;\n                break;\n            }\n        }\n        users[to].factories.push(factory_id);\n    }\n\n    function claimAll() public {\n        uint128[] memory amounts = users[msg.sender].flows;\n        uint128 t = uint128(block.timestamp) - users[msg.sender].lastclaimed;\n        if (t > 86400) t = 86400;\n        for (uint256 i = 0; i < amounts.length; i++) {\n            amounts[i] *= t;\n        }\n        for (uint256 i = 0; i < amounts.length; i++) {\n            if (amounts[i] > 0)\n                require(ERC20I(tokens[i]).mintTo(msg.sender, amounts[i]));\n        }\n        users[msg.sender].lastclaimed = uint64(block.timestamp);\n    }\n\n    function getArea(int32 x, int32 y)\n        public\n        view\n        returns (Relay[41][41] memory)\n    {\n        Relay[41][41] memory r;\n        for (uint32 i = 0; i < 41; i++) {\n            for (uint32 j = 0; j < 41; j++) {\n                Land memory l = lands[x - 20 + int32(i)][y - 20 + int32(j)];\n                r[i][j] = Relay(l.owner, l.seed, factories[l.factory]);\n            }\n        }\n        return r;\n    }\n}\n",
  "sourcePath": "/Users/jayeshbhole/Documents/GitHub/MarsMello/contracts/Marsmello.sol",
  "compiler": {
    "name": "solc",
    "version": "0.8.6+commit.11564f7e.Emscripten.clang"
  },
  "schemaVersion": "3.4.1",
  "updatedAt": "2021-08-04T21:38:28.317Z",
  "networkType": "ethereum",
  "devdoc": {
    "kind": "dev",
    "methods": {
      "allowance(address,address)": {
        "details": "See {IERC20-allowance}."
      },
      "approve(address,uint256)": {
        "details": "See {IERC20-approve}. Requirements: - `spender` cannot be the zero address."
      },
      "balanceOf(address)": {
        "details": "See {IERC20-balanceOf}."
      },
      "decimals()": {
        "details": "Returns the number of decimals used to get its user representation. For example, if `decimals` equals `2`, a balance of `505` tokens should be displayed to a user as `5,05` (`505 / 10 ** 2`). Tokens usually opt for a value of 18, imitating the relationship between Ether and Wei. This is the value {ERC20} uses, unless this function is overridden; NOTE: This information is only used for _display_ purposes: it in no way affects any of the arithmetic of the contract, including {IERC20-balanceOf} and {IERC20-transfer}."
      },
      "decreaseAllowance(address,uint256)": {
        "details": "Atomically decreases the allowance granted to `spender` by the caller. This is an alternative to {approve} that can be used as a mitigation for problems described in {IERC20-approve}. Emits an {Approval} event indicating the updated allowance. Requirements: - `spender` cannot be the zero address. - `spender` must have allowance for the caller of at least `subtractedValue`."
      },
      "increaseAllowance(address,uint256)": {
        "details": "Atomically increases the allowance granted to `spender` by the caller. This is an alternative to {approve} that can be used as a mitigation for problems described in {IERC20-approve}. Emits an {Approval} event indicating the updated allowance. Requirements: - `spender` cannot be the zero address."
      },
      "name()": {
        "details": "Returns the name of the token."
      },
      "owner()": {
        "details": "Returns the address of the current owner."
      },
      "renounceOwnership()": {
        "details": "Leaves the contract without owner. It will not be possible to call `onlyOwner` functions anymore. Can only be called by the current owner. NOTE: Renouncing ownership will leave the contract without an owner, thereby removing any functionality that is only available to the owner."
      },
      "symbol()": {
        "details": "Returns the symbol of the token, usually a shorter version of the name."
      },
      "totalSupply()": {
        "details": "See {IERC20-totalSupply}."
      },
      "transfer(address,uint256)": {
        "details": "See {IERC20-transfer}. Requirements: - `recipient` cannot be the zero address. - the caller must have a balance of at least `amount`."
      },
      "transferFrom(address,address,uint256)": {
        "details": "See {IERC20-transferFrom}. Emits an {Approval} event indicating the updated allowance. This is not required by the EIP. See the note at the beginning of {ERC20}. Requirements: - `sender` and `recipient` cannot be the zero address. - `sender` must have a balance of at least `amount`. - the caller must have allowance for ``sender``'s tokens of at least `amount`."
      },
      "transferOwnership(address)": {
        "details": "Transfers ownership of the contract to a new account (`newOwner`). Can only be called by the current owner."
      }
    },
    "version": 1
  },
  "userdoc": {
    "kind": "user",
    "methods": {},
    "version": 1
  }
}