{
  "contractName": "Marsmello",
  "abi": [
    {
      "inputs": [],
      "stateMutability": "nonpayable",
      "type": "constructor"
    },
    {
      "anonymous": false,
      "inputs": [
        {
          "indexed": true,
          "internalType": "address",
          "name": "owner",
          "type": "address"
        },
        {
          "indexed": true,
          "internalType": "address",
          "name": "spender",
          "type": "address"
        },
        {
          "indexed": false,
          "internalType": "uint256",
          "name": "value",
          "type": "uint256"
        }
      ],
      "name": "Approval",
      "type": "event"
    },
    {
      "anonymous": false,
      "inputs": [
        {
          "indexed": true,
          "internalType": "address",
          "name": "previousOwner",
          "type": "address"
        },
        {
          "indexed": true,
          "internalType": "address",
          "name": "newOwner",
          "type": "address"
        }
      ],
      "name": "OwnershipTransferred",
      "type": "event"
    },
    {
      "anonymous": false,
      "inputs": [
        {
          "indexed": true,
          "internalType": "address",
          "name": "from",
          "type": "address"
        },
        {
          "indexed": true,
          "internalType": "address",
          "name": "to",
          "type": "address"
        },
        {
          "indexed": false,
          "internalType": "uint256",
          "name": "value",
          "type": "uint256"
        }
      ],
      "name": "Transfer",
      "type": "event"
    },
    {
      "inputs": [
        {
          "internalType": "address",
          "name": "owner",
          "type": "address"
        },
        {
          "internalType": "address",
          "name": "spender",
          "type": "address"
        }
      ],
      "name": "allowance",
      "outputs": [
        {
          "internalType": "uint256",
          "name": "",
          "type": "uint256"
        }
      ],
      "stateMutability": "view",
      "type": "function",
      "constant": true
    },
    {
      "inputs": [
        {
          "internalType": "address",
          "name": "spender",
          "type": "address"
        },
        {
          "internalType": "uint256",
          "name": "amount",
          "type": "uint256"
        }
      ],
      "name": "approve",
      "outputs": [
        {
          "internalType": "bool",
          "name": "",
          "type": "bool"
        }
      ],
      "stateMutability": "nonpayable",
      "type": "function"
    },
    {
      "inputs": [
        {
          "internalType": "address",
          "name": "account",
          "type": "address"
        }
      ],
      "name": "balanceOf",
      "outputs": [
        {
          "internalType": "uint256",
          "name": "",
          "type": "uint256"
        }
      ],
      "stateMutability": "view",
      "type": "function",
      "constant": true
    },
    {
      "inputs": [],
      "name": "decimals",
      "outputs": [
        {
          "internalType": "uint8",
          "name": "",
          "type": "uint8"
        }
      ],
      "stateMutability": "view",
      "type": "function",
      "constant": true
    },
    {
      "inputs": [
        {
          "internalType": "address",
          "name": "spender",
          "type": "address"
        },
        {
          "internalType": "uint256",
          "name": "subtractedValue",
          "type": "uint256"
        }
      ],
      "name": "decreaseAllowance",
      "outputs": [
        {
          "internalType": "bool",
          "name": "",
          "type": "bool"
        }
      ],
      "stateMutability": "nonpayable",
      "type": "function"
    },
    {
      "inputs": [
        {
          "internalType": "address",
          "name": "spender",
          "type": "address"
        },
        {
          "internalType": "uint256",
          "name": "addedValue",
          "type": "uint256"
        }
      ],
      "name": "increaseAllowance",
      "outputs": [
        {
          "internalType": "bool",
          "name": "",
          "type": "bool"
        }
      ],
      "stateMutability": "nonpayable",
      "type": "function"
    },
    {
      "inputs": [],
      "name": "name",
      "outputs": [
        {
          "internalType": "string",
          "name": "",
          "type": "string"
        }
      ],
      "stateMutability": "view",
      "type": "function",
      "constant": true
    },
    {
      "inputs": [],
      "name": "owner",
      "outputs": [
        {
          "internalType": "address",
          "name": "",
          "type": "address"
        }
      ],
      "stateMutability": "view",
      "type": "function",
      "constant": true
    },
    {
      "inputs": [],
      "name": "renounceOwnership",
      "outputs": [],
      "stateMutability": "nonpayable",
      "type": "function"
    },
    {
      "inputs": [],
      "name": "symbol",
      "outputs": [
        {
          "internalType": "string",
          "name": "",
          "type": "string"
        }
      ],
      "stateMutability": "view",
      "type": "function",
      "constant": true
    },
    {
      "inputs": [],
      "name": "totalSupply",
      "outputs": [
        {
          "internalType": "uint256",
          "name": "",
          "type": "uint256"
        }
      ],
      "stateMutability": "view",
      "type": "function",
      "constant": true
    },
    {
      "inputs": [
        {
          "internalType": "address",
          "name": "recipient",
          "type": "address"
        },
        {
          "internalType": "uint256",
          "name": "amount",
          "type": "uint256"
        }
      ],
      "name": "transfer",
      "outputs": [
        {
          "internalType": "bool",
          "name": "",
          "type": "bool"
        }
      ],
      "stateMutability": "nonpayable",
      "type": "function"
    },
    {
      "inputs": [
        {
          "internalType": "address",
          "name": "sender",
          "type": "address"
        },
        {
          "internalType": "address",
          "name": "recipient",
          "type": "address"
        },
        {
          "internalType": "uint256",
          "name": "amount",
          "type": "uint256"
        }
      ],
      "name": "transferFrom",
      "outputs": [
        {
          "internalType": "bool",
          "name": "",
          "type": "bool"
        }
      ],
      "stateMutability": "nonpayable",
      "type": "function"
    },
    {
      "inputs": [
        {
          "internalType": "address",
          "name": "newOwner",
          "type": "address"
        }
      ],
      "name": "transferOwnership",
      "outputs": [],
      "stateMutability": "nonpayable",
      "type": "function"
    },
    {
      "inputs": [
        {
          "internalType": "address",
          "name": "a",
          "type": "address"
        }
      ],
      "name": "chechUser",
      "outputs": [],
      "stateMutability": "nonpayable",
      "type": "function"
    },
    {
      "inputs": [
        {
          "internalType": "address",
          "name": "user",
          "type": "address"
        }
      ],
      "name": "getUserData",
      "outputs": [
        {
          "internalType": "uint128[]",
          "name": "",
          "type": "uint128[]"
        },
        {
          "components": [
            {
              "internalType": "int128",
              "name": "x",
              "type": "int128"
            },
            {
              "internalType": "int128",
              "name": "y",
              "type": "int128"
            }
          ],
          "internalType": "struct Marsmello.CoOrdinates[]",
          "name": "",
          "type": "tuple[]"
        },
        {
          "internalType": "uint128[]",
          "name": "",
          "type": "uint128[]"
        },
        {
          "internalType": "uint64",
          "name": "",
          "type": "uint64"
        }
      ],
      "stateMutability": "view",
      "type": "function",
      "constant": true
    },
    {
      "inputs": [],
      "name": "getLandPrice",
      "outputs": [
        {
          "internalType": "uint256",
          "name": "",
          "type": "uint256"
        }
      ],
      "stateMutability": "view",
      "type": "function",
      "constant": true
    },
    {
      "inputs": [
        {
          "internalType": "uint256",
          "name": "rand",
          "type": "uint256"
        }
      ],
      "name": "getRandomNumber",
      "outputs": [
        {
          "internalType": "uint128",
          "name": "",
          "type": "uint128"
        }
      ],
      "stateMutability": "view",
      "type": "function",
      "constant": true
    },
    {
      "inputs": [
        {
          "internalType": "uint128",
          "name": "price",
          "type": "uint128"
        },
        {
          "internalType": "bool",
          "name": "land_dependent",
          "type": "bool"
        },
        {
          "internalType": "uint128[]",
          "name": "r1",
          "type": "uint128[]"
        },
        {
          "internalType": "int128[]",
          "name": "r2",
          "type": "int128[]"
        }
      ],
      "name": "addFactoryType",
      "outputs": [
        {
          "internalType": "uint256",
          "name": "",
          "type": "uint256"
        }
      ],
      "stateMutability": "nonpayable",
      "type": "function"
    },
    {
      "inputs": [],
      "name": "deletefactoryType",
      "outputs": [],
      "stateMutability": "nonpayable",
      "type": "function"
    },
    {
      "inputs": [],
      "name": "getFactoryType",
      "outputs": [
        {
          "components": [
            {
              "internalType": "uint128",
              "name": "price",
              "type": "uint128"
            },
            {
              "components": [
                {
                  "internalType": "uint128",
                  "name": "id",
                  "type": "uint128"
                },
                {
                  "internalType": "int128",
                  "name": "rate",
                  "type": "int128"
                }
              ],
              "internalType": "struct Marsmello.Resource[]",
              "name": "resources",
              "type": "tuple[]"
            },
            {
              "internalType": "bool",
              "name": "land_dependent",
              "type": "bool"
            }
          ],
          "internalType": "struct Marsmello.Factory_type[]",
          "name": "",
          "type": "tuple[]"
        }
      ],
      "stateMutability": "view",
      "type": "function",
      "constant": true
    },
    {
      "inputs": [
        {
          "internalType": "address",
          "name": "token_address",
          "type": "address"
        }
      ],
      "name": "addResource",
      "outputs": [
        {
          "internalType": "uint256",
          "name": "",
          "type": "uint256"
        }
      ],
      "stateMutability": "nonpayable",
      "type": "function"
    },
    {
      "inputs": [
        {
          "internalType": "uint256",
          "name": "id",
          "type": "uint256"
        },
        {
          "internalType": "address",
          "name": "token_address",
          "type": "address"
        }
      ],
      "name": "editResource",
      "outputs": [],
      "stateMutability": "nonpayable",
      "type": "function"
    },
    {
      "inputs": [],
      "name": "deleteResource",
      "outputs": [],
      "stateMutability": "nonpayable",
      "type": "function"
    },
    {
      "inputs": [],
      "name": "getResource",
      "outputs": [
        {
          "internalType": "address[]",
          "name": "",
          "type": "address[]"
        }
      ],
      "stateMutability": "view",
      "type": "function",
      "constant": true
    },
    {
      "inputs": [
        {
          "internalType": "string",
          "name": "name",
          "type": "string"
        },
        {
          "internalType": "uint8",
          "name": "ftype",
          "type": "uint8"
        }
      ],
      "name": "mintFactory",
      "outputs": [],
      "stateMutability": "nonpayable",
      "type": "function"
    },
    {
      "inputs": [
        {
          "internalType": "uint128",
          "name": "seed",
          "type": "uint128"
        },
        {
          "internalType": "uint64",
          "name": "ftype",
          "type": "uint64"
        }
      ],
      "name": "getLandRate",
      "outputs": [
        {
          "internalType": "uint128",
          "name": "",
          "type": "uint128"
        }
      ],
      "stateMutability": "view",
      "type": "function",
      "constant": true
    },
    {
      "inputs": [
        {
          "internalType": "int32",
          "name": "x",
          "type": "int32"
        },
        {
          "internalType": "int32",
          "name": "y",
          "type": "int32"
        }
      ],
      "name": "mintLand",
      "outputs": [],
      "stateMutability": "nonpayable",
      "type": "function"
    },
    {
      "inputs": [
        {
          "internalType": "uint64",
          "name": "factory_id",
          "type": "uint64"
        },
        {
          "internalType": "int128",
          "name": "x",
          "type": "int128"
        },
        {
          "internalType": "int128",
          "name": "y",
          "type": "int128"
        }
      ],
      "name": "placeFactory",
      "outputs": [],
      "stateMutability": "nonpayable",
      "type": "function"
    },
    {
      "inputs": [
        {
          "internalType": "address",
          "name": "to",
          "type": "address"
        },
        {
          "internalType": "int128",
          "name": "x",
          "type": "int128"
        },
        {
          "internalType": "int128",
          "name": "y",
          "type": "int128"
        }
      ],
      "name": "transferLand",
      "outputs": [],
      "stateMutability": "nonpayable",
      "type": "function"
    },
    {
      "inputs": [
        {
          "internalType": "address",
          "name": "to",
          "type": "address"
        },
        {
          "internalType": "uint64",
          "name": "factory_id",
          "type": "uint64"
        }
      ],
      "name": "transferFactory",
      "outputs": [],
      "stateMutability": "nonpayable",
      "type": "function"
    },
    {
      "inputs": [],
      "name": "claimAll",
      "outputs": [],
      "stateMutability": "nonpayable",
      "type": "function"
    },
    {
      "inputs": [
        {
          "internalType": "int128",
          "name": "x",
          "type": "int128"
        },
        {
          "internalType": "int128",
          "name": "y",
          "type": "int128"
        }
      ],
      "name": "getArea",
      "outputs": [
        {
          "components": [
            {
              "internalType": "address",
              "name": "owner",
              "type": "address"
            },
            {
              "internalType": "uint128",
              "name": "seed",
              "type": "uint128"
            },
            {
              "components": [
                {
                  "internalType": "string",
                  "name": "name",
                  "type": "string"
                },
                {
                  "internalType": "address",
                  "name": "owner",
                  "type": "address"
                },
                {
                  "internalType": "uint64",
                  "name": "ftype",
                  "type": "uint64"
                },
                {
                  "internalType": "uint64",
                  "name": "efficiency",
                  "type": "uint64"
                },
                {
                  "components": [
                    {
                      "internalType": "int128",
                      "name": "x",
                      "type": "int128"
                    },
                    {
                      "internalType": "int128",
                      "name": "y",
                      "type": "int128"
                    }
                  ],
                  "internalType": "struct Marsmello.CoOrdinates",
                  "name": "placedon",
                  "type": "tuple"
                }
              ],
              "internalType": "struct Marsmello.Factory",
              "name": "ontop",
              "type": "tuple"
            }
          ],
          "internalType": "struct Marsmello.Relay[41][41]",
          "name": "",
          "type": "tuple[41][41]"
        }
      ],
      "stateMutability": "view",
      "type": "function",
      "constant": true
    }
  ],
  "bytecode": "0x60c060405260096080819052684d6172734d656c6c6f60b81b60a09081526200002c9160069190620004a8565b50604080518082019091526003808252624d4c4f60e81b60209092019182526200005991600791620004a8565b50633b9aca0060085567ab54a98ceb1f0ad2600a5560126200007d90600a620005b2565b6200008b906103e862000680565b600b556005600c556000600d55348015620000a557600080fd5b5060068054620000b590620006a2565b80601f0160208091040260200160405190810160405280929190818152602001828054620000e390620006a2565b8015620001345780601f10620001085761010080835404028352916020019162000134565b820191906000526020600020905b8154815290600101906020018083116200011657829003601f168201915b5050505050600780546200014890620006a2565b80601f01602080910402602001604051908101604052809291908181526020018280546200017690620006a2565b8015620001c75780601f106200019b57610100808354040283529160200191620001c7565b820191906000526020600020905b815481529060010190602001808311620001a957829003601f168201915b50508451620001e1935060039250602086019150620004a8565b508051620001f7906004906020840190620004a8565b505050620002146200020e6200036a60201b60201c565b6200036e565b6200023c33620002276012600a620005b2565b60085462000236919062000680565b620003c0565b426009556040805160e081018252600460a0820181815263159bda5960e21b60c08401528252600060208084018290528385018290526060840182905284518086019095528185528481018290526080840194909452601080546001810182559152825180519394919092027f1b6847dc741a1b0cd08d278845f9d819d87b734759afb55fe2de5cb82a9ae6720192620002da9284920190620004a8565b5060208281015160018301805460408601516001600160a01b039093166001600160e01b031990911617600160a01b6001600160401b039384160217905560608401516002840180546001600160401b031916919092161790556080909201518051920151600f92830b6001600160801b03908116600160801b9290940b160291909117600390910155620006f5565b3390565b600580546001600160a01b038381166001600160a01b0319831681179093556040519116919082907f8be0079c531659141344cd1fd0a4f28419497f9722a3daafe3b4186f6b6457e090600090a35050565b6001600160a01b0382166200041b5760405162461bcd60e51b815260206004820152601f60248201527f45524332303a206d696e7420746f20746865207a65726f206164647265737300604482015260640160405180910390fd5b80600260008282546200042f91906200054e565b90915550506001600160a01b038216600090815260208190526040812080548392906200045e9084906200054e565b90915550506040518181526001600160a01b038316906000907fddf252ad1be2c89b69c2b068fc378daa952ba7f163c4a11628f55a4df523b3ef9060200160405180910390a35050565b828054620004b690620006a2565b90600052602060002090601f016020900481019282620004da576000855562000525565b82601f10620004f557805160ff191683800117855562000525565b8280016001018555821562000525579182015b828111156200052557825182559160200191906001019062000508565b506200053392915062000537565b5090565b5b8082111562000533576000815560010162000538565b60008219821115620005645762000564620006df565b500190565b600181815b80851115620005aa5781600019048211156200058e576200058e620006df565b808516156200059c57918102915b93841c93908002906200056e565b509250929050565b6000620005c360ff841683620005ca565b9392505050565b600082620005db575060016200067a565b81620005ea575060006200067a565b81600181146200060357600281146200060e576200062e565b60019150506200067a565b60ff841115620006225762000622620006df565b50506001821b6200067a565b5060208310610133831016604e8410600b841016171562000653575081810a6200067a565b6200065f838362000569565b8060001904821115620006765762000676620006df565b0290505b92915050565b60008160001904831182151516156200069d576200069d620006df565b500290565b600181811c90821680620006b757607f821691505b60208210811415620006d957634e487b7160e01b600052602260045260246000fd5b50919050565b634e487b7160e01b600052601160045260246000fd5b61462980620007056000396000f3fe608060405234801561001057600080fd5b506004361061020b5760003560e01c80638da5cb5b1161012a578063bd2a3bbd116100bd578063dd8105ac1161008c578063f2fde38b11610071578063f2fde38b146104bd578063f8648ad3146104d0578063ffc9896b146104e357600080fd5b8063dd8105ac146104a2578063e322fd56146104b557600080fd5b8063bd2a3bbd1461042c578063d1058e591461043f578063dbb9c8d414610447578063dd62ed3e1461045c57600080fd5b8063a9059cbb116100f9578063a9059cbb146103bd578063ae74c5e3146103d0578063b37217a4146103e3578063bb65dc831461041757600080fd5b80638da5cb5b1461036757806395d89b411461038f578063a457c2d714610397578063a52b4efa146103aa57600080fd5b80634c8a28dc116101a257806370a082311161017157806370a08231146102f657806370ba2e051461032c578063715018a61461033f57806374a172db1461034757600080fd5b80634c8a28dc146102b55780635bc05aae146102c857806360449f93146102db57806362f4dfb5146102e357600080fd5b8063313ce567116101de578063313ce5671461027657806335b85d7a14610285578063395093511461028d5780634379c02c146102a057600080fd5b806306fdde0314610210578063095ea7b31461022e57806318160ddd1461025157806323b872dd14610263575b600080fd5b610218610506565b6040516102259190614024565b60405180910390f35b61024161023c3660046139a6565b610598565b6040519015158152602001610225565b6002545b604051908152602001610225565b610241610271366004613927565b6105af565b60405160128152602001610225565b600b54610255565b61024161029b3660046139a6565b61069a565b6102b36102ae3660046139d0565b6106e3565b005b6102556102c3366004613b2a565b6109ae565b6102556102d63660046138d9565b610c78565b6102b3610d82565b6102b36102f1366004613c15565b610e6e565b6102556103043660046138d9565b73ffffffffffffffffffffffffffffffffffffffff1660009081526020819052604090205490565b6102b361033a366004613a86565b61168b565b6102b3611a03565b61035a610355366004613a32565b611a90565b6040516102259190613d45565b60055460405173ffffffffffffffffffffffffffffffffffffffff9091168152602001610225565b610218611da0565b6102416103a53660046139a6565b611daf565b6102b36103b8366004613a5c565b611e87565b6102416103cb3660046139a6565b61219b565b6102b36103de366004613963565b6121a8565b6103f66103f1366004613bd9565b61250b565b6040516fffffffffffffffffffffffffffffffff9091168152602001610225565b61041f612567565b6040516102259190613ceb565b6102b361043a3660046138d9565b6125d5565b6102b3612675565b61044f61297f565b6040516102259190613e9b565b61025561046a3660046138f4565b73ffffffffffffffffffffffffffffffffffffffff918216600090815260016020908152604080832093909416825291909152205490565b6102b36104b0366004613bf2565b612a96565b6102b3612b77565b6102b36104cb3660046138d9565b612c9e565b6103f66104de366004613bbd565b612dcb565b6104f66104f13660046138d9565b612e5d565b6040516102259493929190613f8b565b6060600380546105159061440e565b80601f01602080910402602001604051908101604052809291908181526020018280546105419061440e565b801561058e5780601f106105635761010080835404028352916020019161058e565b820191906000526020600020905b81548152906001019060200180831161057157829003601f168201915b5050505050905090565b60006105a533848461305e565b5060015b92915050565b60006105bc848484613211565b73ffffffffffffffffffffffffffffffffffffffff8416600090815260016020908152604080832033845290915290205482811015610682576040517f08c379a000000000000000000000000000000000000000000000000000000000815260206004820152602860248201527f45524332303a207472616e7366657220616d6f756e742065786365656473206160448201527f6c6c6f77616e636500000000000000000000000000000000000000000000000060648201526084015b60405180910390fd5b61068f853385840361305e565b506001949350505050565b33600081815260016020908152604080832073ffffffffffffffffffffffffffffffffffffffff8716845290915281205490916105a59185906106de9086906140db565b61305e565b8067ffffffffffffffff163373ffffffffffffffffffffffffffffffffffffffff1660108281548110610718576107186145b6565b600091825260209091206001600490920201015473ffffffffffffffffffffffffffffffffffffffff16146107a9576040517f08c379a000000000000000000000000000000000000000000000000000000000815260206004820152601f60248201527f466163746f727920646f65736e27742062656c6f6e6720746f20796f752021006044820152606401610679565b600060108367ffffffffffffffff16815481106107c8576107c86145b6565b600091825260209182902060408051808201909152600492909202016003810154600f81810b810b810b8452700100000000000000000000000000000000909104810b810b900b92820192909252909150610822906134c5565b6108358367ffffffffffffffff16613525565b6001810180547fffffffffffffffffffffffff00000000000000000000000000000000000000001673ffffffffffffffffffffffffffffffffffffffff861617905560005b3360009081526012602052604090205481101561093157336000908152601260205260409020805467ffffffffffffffff86169190839081106108bf576108bf6145b6565b6000918252602090912060028204015460019091166010026101000a90046fffffffffffffffffffffffffffffffff16141561091f57336000908152601260205260409020805482908110610916576109166145b6565b50600052610931565b8061092981614492565b91505061087a565b50505073ffffffffffffffffffffffffffffffffffffffff919091166000908152601260209081526040822080546001808201835591845291909220600282040180546fffffffffffffffffffffffffffffffff939092166010026101000a9283021990911667ffffffffffffffff909316909102919091179055565b60055460009073ffffffffffffffffffffffffffffffffffffffff163314610a32576040517f08c379a000000000000000000000000000000000000000000000000000000000815260206004820181905260248201527f4f776e61626c653a2063616c6c6572206973206e6f7420746865206f776e65726044820152606401610679565b838214610a9b576040517f08c379a000000000000000000000000000000000000000000000000000000000815260206004820152601660248201527f4172726179206c656e677468206d69736d6174636821000000000000000000006044820152606401610679565b6011805460019081018083556000928352610ab691906143f7565b90508760118281548110610acc57610acc6145b6565b906000526020600020906003020160000160006101000a8154816fffffffffffffffffffffffffffffffff02191690836fffffffffffffffffffffffffffffffff1602179055508660118281548110610b2757610b276145b6565b6000918252602082206003919091020160020180547fffffffffffffffffffffffffffffffffffffffffffffffffffffffffffffff0016921515929092179091555b85811015610c6c5760118281548110610b8457610b846145b6565b90600052602060002090600302016001016040518060400160405280898985818110610bb257610bb26145b6565b9050602002016020810190610bc79190613b0f565b6fffffffffffffffffffffffffffffffff168152602001878785818110610bf057610bf06145b6565b9050602002016020810190610c059190613a17565b600f90810b909152825460018101845560009384526020938490208351949093015190910b6fffffffffffffffffffffffffffffffff9081167001000000000000000000000000000000000293169290921791015580610c6481614492565b915050610b69565b50979650505050505050565b60055460009073ffffffffffffffffffffffffffffffffffffffff163314610cfc576040517f08c379a000000000000000000000000000000000000000000000000000000000815260206004820181905260248201527f4f776e61626c653a2063616c6c6572206973206e6f7420746865206f776e65726044820152606401610679565b600e80546001808201835560008390527fbb7b4a454dc3493923482f07822329ed19e8244eff582cc204f8554c3620c3fd90910180547fffffffffffffffffffffffff00000000000000000000000000000000000000001673ffffffffffffffffffffffffffffffffffffffff86161790559054610d7a91906143f7565b90505b919050565b60055473ffffffffffffffffffffffffffffffffffffffff163314610e03576040517f08c379a000000000000000000000000000000000000000000000000000000000815260206004820181905260248201527f4f776e61626c653a2063616c6c6572206973206e6f7420746865206f776e65726044820152606401610679565b600e805480610e1457610e14614587565b60008281526020902081017fffffffffffffffffffffffffffffffffffffffffffffffffffffffffffffffff90810180547fffffffffffffffffffffffff0000000000000000000000000000000000000000169055019055565b600f82810b810b60009081526020828152604080832085850b90940b835292905220548290829073ffffffffffffffffffffffffffffffffffffffff163314610f13576040517f08c379a000000000000000000000000000000000000000000000000000000000815260206004820152601c60248201527f4c616e6420646f65736e27742062656c6f6e6720746f20796f752021000000006044820152606401610679565b8467ffffffffffffffff163373ffffffffffffffffffffffffffffffffffffffff1660108281548110610f4857610f486145b6565b600091825260209091206001600490920201015473ffffffffffffffffffffffffffffffffffffffff1614610fd9576040517f08c379a000000000000000000000000000000000000000000000000000000000815260206004820152601f60248201527f466163746f727920646f65736e27742062656c6f6e6720746f20796f752021006044820152606401610679565b610fe1612675565b600f85810b810b60009081526020828152604080832088850b90940b835292905220600101546110369070010000000000000000000000000000000090046fffffffffffffffffffffffffffffffff16613525565b6110a860108767ffffffffffffffff1681548110611056576110566145b6565b6000918252602091829020604080518082019091526004929092020160030154600f81810b810b810b8352700100000000000000000000000000000000909104810b810b900b918101919091526134c5565b600f85810b810b60009081526020828152604080832088850b90940b835292905290812060010180546fffffffffffffffffffffffffffffffff1667ffffffffffffffff891670010000000000000000000000000000000081029190911790915560108054909190811061111e5761111e6145b6565b6000918252602080832060408051808201909152600f8b810b8083528b820b9290940182905290810b6fffffffffffffffffffffffffffffffff908116700100000000000000000000000000000000029390910b1691909117600360049093029091019182015591505b600182015460118054909174010000000000000000000000000000000000000000900467ffffffffffffffff169081106111c4576111c46145b6565b9060005260206000209060030201600101805490508110156116815760018201546011805460009274010000000000000000000000000000000000000000900467ffffffffffffffff1690811061121d5761121d6145b6565b9060005260206000209060030201600101828154811061123f5761123f6145b6565b60009182526020808320604080518082019091529201546fffffffffffffffffffffffffffffffff811683527001000000000000000000000000000000009004600f90810b810b810b918301829052919350900b121561151c576002830154602082015167ffffffffffffffff909116906112da907fffffffffffffffffffffffffffffffffffffffffffffffffffffffffffffffff614267565b6112e4919061431d565b6fffffffffffffffffffffffffffffffff16601260003373ffffffffffffffffffffffffffffffffffffffff1673ffffffffffffffffffffffffffffffffffffffff16815260200190815260200160002060020182600001516fffffffffffffffffffffffffffffffff168154811061135f5761135f6145b6565b6000918252602090912060028204015460019091166010026101000a90046fffffffffffffffffffffffffffffffff161161141c576040517f08c379a000000000000000000000000000000000000000000000000000000000815260206004820152602d60248201527f4e6f7420656e6f756768207265736f757263652073747265616d20746f20706c60448201527f61636520666163746f72792021000000000000000000000000000000000000006064820152608401610679565b6002830154602082015167ffffffffffffffff9091169061145d907fffffffffffffffffffffffffffffffffffffffffffffffffffffffffffffffff614267565b611467919061431d565b33600090815260126020526040902082516002909101805490916fffffffffffffffffffffffffffffffff169081106114a2576114a26145b6565b90600052602060002090600291828204019190066010028282829054906101000a90046fffffffffffffffffffffffffffffffff166114e191906143c6565b92506101000a8154816fffffffffffffffffffffffffffffffff02191690836fffffffffffffffffffffffffffffffff16021790555061166e565b600f88810b810b6000908152602082815260408083208b850b90940b8352929052206001908101549084015460649161158b916fffffffffffffffffffffffffffffffff9091169074010000000000000000000000000000000000000000900467ffffffffffffffff16612dcb565b600285015460208401516115a99167ffffffffffffffff169061431d565b6115b3919061431d565b6115bd91906140f3565b33600090815260126020526040902082516002909101805490916fffffffffffffffffffffffffffffffff169081106115f8576115f86145b6565b90600052602060002090600291828204019190066010028282829054906101000a90046fffffffffffffffffffffffffffffffff1661163791906140a7565b92506101000a8154816fffffffffffffffffffffffffffffffff02191690836fffffffffffffffffffffffffffffffff1602179055505b508061167981614492565b915050611188565b5050505050505050565b60118160ff16815481106116a1576116a16145b6565b60009182526020909120600390910201546fffffffffffffffffffffffffffffffff166116f03373ffffffffffffffffffffffffffffffffffffffff1660009081526020819052604090205490565b101561177e576040517f08c379a000000000000000000000000000000000000000000000000000000000815260206004820152602b60248201527f4e6f7420656e6f756768204d4c4f20696e20796f75722077616c6c657420746f60448201527f20627579206c616e6420210000000000000000000000000000000000000000006064820152608401610679565b611787336125d5565b6010546000906117969061250b565b905060106040518060a0016040528086868080601f01602080910402602001604051908101604052809392919081815260200183838082843760009201919091525050509082525033602082015260ff851660408201526060016117fb6033856144cb565b6118069060326140a7565b67ffffffffffffffff16815260408051808201909152600080825260208281018290529283019190915283546001810185559381528190208251805193946004029091019261185892849201906136a2565b50602082810151600183018054604086015173ffffffffffffffffffffffffffffffffffffffff9093167fffffffff00000000000000000000000000000000000000000000000000000000909116177401000000000000000000000000000000000000000067ffffffffffffffff9384160217905560608401516002840180547fffffffffffffffffffffffffffffffffffffffffffffffff000000000000000016919092161790556080909201518051920151600f92830b6fffffffffffffffffffffffffffffffff9081167001000000000000000000000000000000009290940b1602919091176003909101556011805461198f91339130919060ff8716908110611967576119676145b6565b60009182526020909120600390910201546fffffffffffffffffffffffffffffffff16613211565b3360009081526012602052604090206010546119ad906001906143f7565b81546001808201845560009384526020909320600282040180546fffffffffffffffffffffffffffffffff949092166010026101000a9384021990911667ffffffffffffffff9290921690920217905550505050565b60055473ffffffffffffffffffffffffffffffffffffffff163314611a84576040517f08c379a000000000000000000000000000000000000000000000000000000000815260206004820181905260248201527f4f776e61626c653a2063616c6c6572206973206e6f7420746865206f776e65726044820152606401610679565b611a8e600061362b565b565b611a98613726565b611aa0613726565b60005b6029816fffffffffffffffffffffffffffffffff161015611d985760005b6029816fffffffffffffffffffffffffffffffff161015611d85576000600f8184611aed60148b614355565b611af79190614037565b600f0b600f0b8152602001908152602001600020600083601489611b1b9190614355565b611b259190614037565b600f90810b900b81526020808201929092526040908101600020815160608082018452825473ffffffffffffffffffffffffffffffffffffffff90811683526001909301546fffffffffffffffffffffffffffffffff80821684880190815270010000000000000000000000000000000090920481168487019081528651938401875284519095168352905181169582019590955291516010805492965092949385019316908110611bd957611bd96145b6565b90600052602060002090600402016040518060a0016040529081600082018054611c029061440e565b80601f0160208091040260200160405190810160405280929190818152602001828054611c2e9061440e565b8015611c7b5780601f10611c5057610100808354040283529160200191611c7b565b820191906000526020600020905b815481529060010190602001808311611c5e57829003601f168201915b5050509183525050600182015473ffffffffffffffffffffffffffffffffffffffff81166020808401919091527401000000000000000000000000000000000000000090910467ffffffffffffffff908116604080850191909152600285015490911660608401528051808201909152600390930154600f81810b810b810b8552700100000000000000000000000000000000909104810b810b900b90830152608001529052846fffffffffffffffffffffffffffffffff851660298110611d4557611d456145b6565b6020020151836fffffffffffffffffffffffffffffffff1660298110611d6d57611d6d6145b6565b60200201525080611d7d81614462565b915050611ac1565b5080611d9081614462565b915050611aa3565b509392505050565b6060600480546105159061440e565b33600090815260016020908152604080832073ffffffffffffffffffffffffffffffffffffffff8616845290915281205482811015611e70576040517f08c379a000000000000000000000000000000000000000000000000000000000815260206004820152602560248201527f45524332303a2064656372656173656420616c6c6f77616e63652062656c6f7760448201527f207a65726f0000000000000000000000000000000000000000000000000000006064820152608401610679565b611e7d338585840361305e565b5060019392505050565b8160030b6000141580611e9e57508060030b600014155b611f04576040517f08c379a000000000000000000000000000000000000000000000000000000000815260206004820152601160248201527f43616e27742062757920737061776e20210000000000000000000000000000006044820152606401610679565b600382810b600f90810b6000908152602082815260408083209486900b90930b82529290925290205473ffffffffffffffffffffffffffffffffffffffff1615611faa576040517f08c379a000000000000000000000000000000000000000000000000000000000815260206004820152601560248201527f4c616e6420616c726561647920657869737473202100000000000000000000006044820152606401610679565b600b5433600090815260208190526040902054101561204b576040517f08c379a000000000000000000000000000000000000000000000000000000000815260206004820152602b60248201527f4e6f7420656e6f756768204d4c4f20696e20796f75722077616c6c657420746f60448201527f20627579206c616e6420210000000000000000000000000000000000000000006064820152608401610679565b612054336125d5565b6120613330600b54613211565b6064600b546120709190614122565b600b600082825461208191906140db565b925050819055506000612095600b5461250b565b60408051606081018252338082526fffffffffffffffffffffffffffffffff9384166020808401918252600084860181815260039a8b0b600f90810b8084528185528884209b909c0b810b8084529a84528783209651875473ffffffffffffffffffffffffffffffffffffffff919091167fffffffffffffffffffffffff00000000000000000000000000000000000000009091161787559351905188167001000000000000000000000000000000009081029189169190911760019687015593815260128252858120865180880190975299865285820198895298840180549485018155895290972092519551870b8416029490950b90911692909217919092015550565b60006105a5338484613211565b600f82810b810b60009081526020828152604080832085850b90940b835292905220548290829073ffffffffffffffffffffffffffffffffffffffff16331461224d576040517f08c379a000000000000000000000000000000000000000000000000000000000815260206004820152601c60248201527f4c616e6420646f65736e27742062656c6f6e6720746f20796f752021000000006044820152606401610679565b600f84810b810b60009081526020828152604080832087850b90940b835292905220600101546122a29070010000000000000000000000000000000090046fffffffffffffffffffffffffffffffff16613525565b6122c5604051806040016040528086600f0b815260200185600f0b8152506134c5565b600f84810b810b60009081526020828152604080832087850b90940b835292905290812080547fffffffffffffffffffffffff00000000000000000000000000000000000000001673ffffffffffffffffffffffffffffffffffffffff88161790555b33600090815260126020526040902060010154811015612478573360009081526012602052604090206001018054600f87900b91908390811061236d5761236d6145b6565b600091825260209091200154600f90810b900b1480156123dc57503360009081526012602052604090206001018054600f86900b9190839081106123b3576123b36145b6565b6000918252602090912001547001000000000000000000000000000000009004600f90810b900b145b1561246657604080518082018252600080825260208083018290523382526012905291909120600101805483908110612417576124176145b6565b600091825260209182902083519390920151600f90810b6fffffffffffffffffffffffffffffffff908116700100000000000000000000000000000000029490910b1692909217910155612478565b8061247081614492565b915050612328565b50505073ffffffffffffffffffffffffffffffffffffffff90921660009081526012602090815260408083208151808301909252600f94850b825294840b81830190815260019586018054968701815584529190922091519051830b6fffffffffffffffffffffffffffffffff908116700100000000000000000000000000000000029190930b90921691909117910155565b60006125186001436143f7565b60408051914060208301528101839052606001604080517fffffffffffffffffffffffffffffffffffffffffffffffffffffffffffffffe0818403018152919052805160209091012092915050565b6060600e80548060200260200160405190810160405280929190818152602001828054801561058e57602002820191906000526020600020905b815473ffffffffffffffffffffffffffffffffffffffff1681526001909101906020018083116125a1575050505050905090565b5b600c5473ffffffffffffffffffffffffffffffffffffffff821660009081526012602052604090206002015410156126725773ffffffffffffffffffffffffffffffffffffffff811660009081526012602090815260408220600290810180546001808201835591855292909320908204018054929091166010026101000a6fffffffffffffffffffffffffffffffff021990911690556125d6565b50565b3360009081526012602090815260408083206002018054825181850281018501909352808352919290919083018282801561271357602002820191906000526020600020906000905b82829054906101000a90046fffffffffffffffffffffffffffffffff166fffffffffffffffffffffffffffffffff1681526020019060100190602082600f010492830192600103820291508084116126be5790505b50503360009081526012602052604081206003015494955093612745935067ffffffffffffffff1691504290506143c6565b905062015180816fffffffffffffffffffffffffffffffff16111561276a5750620151805b60005b82518110156127c45781838281518110612789576127896145b6565b6020026020010181815161279d919061431d565b6fffffffffffffffffffffffffffffffff16905250806127bc81614492565b91505061276d565b5060005b82518110156129365760008382815181106127e5576127e56145b6565b60200260200101516fffffffffffffffffffffffffffffffff16111561292457600e8181548110612818576128186145b6565b9060005260206000200160009054906101000a900473ffffffffffffffffffffffffffffffffffffffff1673ffffffffffffffffffffffffffffffffffffffff1663449a52f833858481518110612871576128716145b6565b60200260200101516040518363ffffffff1660e01b81526004016128c992919073ffffffffffffffffffffffffffffffffffffffff9290921682526fffffffffffffffffffffffffffffffff16602082015260400190565b602060405180830381600087803b1580156128e357600080fd5b505af11580156128f7573d6000803e3d6000fd5b505050506040513d601f19601f8201168201806040525081019061291b91906139fa565b61292457600080fd5b8061292e81614492565b9150506127c8565b505033600090815260126020526040902060030180547fffffffffffffffffffffffffffffffffffffffffffffffff0000000000000000164267ffffffffffffffff1617905550565b60606011805480602002602001604051908101604052809291908181526020016000905b82821015612a8d5760008481526020808220604080516060810182526003870290920180546fffffffffffffffffffffffffffffffff168352600181018054835181870281018701909452808452939591948681019491929084015b82821015612a6457600084815260209081902060408051808201909152908401546fffffffffffffffffffffffffffffffff811682527001000000000000000000000000000000009004600f90810b810b900b818301528252600190920191016129ff565b505050908252506002919091015460ff16151560209182015290825260019290920191016129a3565b50505050905090565b60055473ffffffffffffffffffffffffffffffffffffffff163314612b17576040517f08c379a000000000000000000000000000000000000000000000000000000000815260206004820181905260248201527f4f776e61626c653a2063616c6c6572206973206e6f7420746865206f776e65726044820152606401610679565b80600e8381548110612b2b57612b2b6145b6565b9060005260206000200160006101000a81548173ffffffffffffffffffffffffffffffffffffffff021916908373ffffffffffffffffffffffffffffffffffffffff1602179055505050565b60055473ffffffffffffffffffffffffffffffffffffffff163314612bf8576040517f08c379a000000000000000000000000000000000000000000000000000000000815260206004820181905260248201527f4f776e61626c653a2063616c6c6572206973206e6f7420746865206f776e65726044820152606401610679565b6011805480612c0957612c09614587565b60008281526020812060037fffffffffffffffffffffffffffffffffffffffffffffffffffffffffffffffff9093019283020180547fffffffffffffffffffffffffffffffff0000000000000000000000000000000016815590612c706001830182613754565b5060020180547fffffffffffffffffffffffffffffffffffffffffffffffffffffffffffffff001690559055565b60055473ffffffffffffffffffffffffffffffffffffffff163314612d1f576040517f08c379a000000000000000000000000000000000000000000000000000000000815260206004820181905260248201527f4f776e61626c653a2063616c6c6572206973206e6f7420746865206f776e65726044820152606401610679565b73ffffffffffffffffffffffffffffffffffffffff8116612dc2576040517f08c379a000000000000000000000000000000000000000000000000000000000815260206004820152602660248201527f4f776e61626c653a206e6577206f776e657220697320746865207a65726f206160448201527f64647265737300000000000000000000000000000000000000000000000000006064820152608401610679565b6126728161362b565b600060118267ffffffffffffffff1681548110612dea57612dea6145b6565b600091825260209091206002600390920201015460ff16612e0d575060646105a9565b6033612e1a60238461450e565b612e2590600a614197565b612e41906fffffffffffffffffffffffffffffffff8616614122565b612e4b91906144fa565b612e569060326140db565b9392505050565b73ffffffffffffffffffffffffffffffffffffffff8116600090815260126020908152604080832060038101548154835181860281018601909452808452606095869586959194936001850193600286019367ffffffffffffffff90921692869190830182828015612f3257602002820191906000526020600020906000905b82829054906101000a90046fffffffffffffffffffffffffffffffff166fffffffffffffffffffffffffffffffff1681526020019060100190602082600f01049283019260010382029150808411612edd5790505b5050505050935082805480602002602001604051908101604052809291908181526020016000905b82821015612fb35760008481526020908190206040805180820190915290840154600f81810b810b810b8352700100000000000000000000000000000000909104810b810b900b81830152825260019092019101612f5a565b5050505092508180548060200260200160405190810160405280929190818152602001828054801561304857602002820191906000526020600020906000905b82829054906101000a90046fffffffffffffffffffffffffffffffff166fffffffffffffffffffffffffffffffff1681526020019060100190602082600f01049283019260010382029150808411612ff35790505b5050505050915093509350935093509193509193565b73ffffffffffffffffffffffffffffffffffffffff8316613100576040517f08c379a0000000000000000000000000000000000000000000000000000000008152602060048201526024808201527f45524332303a20617070726f76652066726f6d20746865207a65726f2061646460448201527f72657373000000000000000000000000000000000000000000000000000000006064820152608401610679565b73ffffffffffffffffffffffffffffffffffffffff82166131a3576040517f08c379a000000000000000000000000000000000000000000000000000000000815260206004820152602260248201527f45524332303a20617070726f766520746f20746865207a65726f20616464726560448201527f73730000000000000000000000000000000000000000000000000000000000006064820152608401610679565b73ffffffffffffffffffffffffffffffffffffffff83811660008181526001602090815260408083209487168084529482529182902085905590518481527f8c5be1e5ebec7d5bd14f71427d1e84f3dd0314c0f7b2291e5b200ac8c7c3b925910160405180910390a3505050565b73ffffffffffffffffffffffffffffffffffffffff83166132b4576040517f08c379a000000000000000000000000000000000000000000000000000000000815260206004820152602560248201527f45524332303a207472616e736665722066726f6d20746865207a65726f20616460448201527f64726573730000000000000000000000000000000000000000000000000000006064820152608401610679565b73ffffffffffffffffffffffffffffffffffffffff8216613357576040517f08c379a000000000000000000000000000000000000000000000000000000000815260206004820152602360248201527f45524332303a207472616e7366657220746f20746865207a65726f206164647260448201527f65737300000000000000000000000000000000000000000000000000000000006064820152608401610679565b73ffffffffffffffffffffffffffffffffffffffff83166000908152602081905260409020548181101561340d576040517f08c379a000000000000000000000000000000000000000000000000000000000815260206004820152602660248201527f45524332303a207472616e7366657220616d6f756e742065786365656473206260448201527f616c616e636500000000000000000000000000000000000000000000000000006064820152608401610679565b73ffffffffffffffffffffffffffffffffffffffff8085166000908152602081905260408082208585039055918516815290812080548492906134519084906140db565b925050819055508273ffffffffffffffffffffffffffffffffffffffff168473ffffffffffffffffffffffffffffffffffffffff167fddf252ad1be2c89b69c2b068fc378daa952ba7f163c4a11628f55a4df523b3ef846040516134b791815260200190565b60405180910390a350505050565b8051600f0b1515806134dd57506020810151600f0b15155b15612672578051600f90810b810b60009081526020828152604080832082860151850b90940b83529290522060010180546fffffffffffffffffffffffffffffffff16905550565b80158015906135aa575060108181548110613542576135426145b6565b6000918252602090912060036004909202010154600f90810b900b1515806135aa575060108181548110613578576135786145b6565b60009182526020909120600360049092020101547001000000000000000000000000000000009004600f90810b900b15155b1561267257604080518082019091526000808252602082015260108054839081106135d7576135d76145b6565b600091825260209182902083519390920151600f93840b6fffffffffffffffffffffffffffffffff9081167001000000000000000000000000000000009290950b1602929092176004909202016003015550565b6005805473ffffffffffffffffffffffffffffffffffffffff8381167fffffffffffffffffffffffff0000000000000000000000000000000000000000831681179093556040519116919082907f8be0079c531659141344cd1fd0a4f28419497f9722a3daafe3b4186f6b6457e090600090a35050565b8280546136ae9061440e565b90600052602060002090601f0160209004810192826136d05760008555613716565b82601f106136e957805160ff1916838001178555613716565b82800160010185558215613716579182015b828111156137165782518255916020019190600101906136fb565b5061372292915061376e565b5090565b6040518061052001604052806029905b61373e613783565b8152602001906001900390816137365790505090565b508054600082559060005260206000209081019061267291905b5b80821115613722576000815560010161376f565b6040518061052001604052806029905b61379b6137b1565b8152602001906001900390816137935790505090565b60408051606081018252600080825260208201529081016138086040805160a08101825260608082526000602080840182905283850182905291830181905283518085019094528084529083015290608082015290565b905290565b803573ffffffffffffffffffffffffffffffffffffffff81168114610d7d57600080fd5b60008083601f84011261384357600080fd5b50813567ffffffffffffffff81111561385b57600080fd5b6020830191508360208260051b850101111561387657600080fd5b9250929050565b8035600f81900b8114610d7d57600080fd5b8035600381900b8114610d7d57600080fd5b80356fffffffffffffffffffffffffffffffff81168114610d7d57600080fd5b803567ffffffffffffffff81168114610d7d57600080fd5b6000602082840312156138eb57600080fd5b612e568261380d565b6000806040838503121561390757600080fd5b6139108361380d565b915061391e6020840161380d565b90509250929050565b60008060006060848603121561393c57600080fd5b6139458461380d565b92506139536020850161380d565b9150604084013590509250925092565b60008060006060848603121561397857600080fd5b6139818461380d565b925061398f6020850161387d565b915061399d6040850161387d565b90509250925092565b600080604083850312156139b957600080fd5b6139c28361380d565b946020939093013593505050565b600080604083850312156139e357600080fd5b6139ec8361380d565b915061391e602084016138c1565b600060208284031215613a0c57600080fd5b8151612e56816145e5565b600060208284031215613a2957600080fd5b612e568261387d565b60008060408385031215613a4557600080fd5b613a4e8361387d565b915061391e6020840161387d565b60008060408385031215613a6f57600080fd5b613a788361388f565b915061391e6020840161388f565b600080600060408486031215613a9b57600080fd5b833567ffffffffffffffff80821115613ab357600080fd5b818601915086601f830112613ac757600080fd5b813581811115613ad657600080fd5b876020828501011115613ae857600080fd5b6020928301955093505084013560ff81168114613b0457600080fd5b809150509250925092565b600060208284031215613b2157600080fd5b612e56826138a1565b60008060008060008060808789031215613b4357600080fd5b613b4c876138a1565b95506020870135613b5c816145e5565b9450604087013567ffffffffffffffff80821115613b7957600080fd5b613b858a838b01613831565b90965094506060890135915080821115613b9e57600080fd5b50613bab89828a01613831565b979a9699509497509295939492505050565b60008060408385031215613bd057600080fd5b6139ec836138a1565b600060208284031215613beb57600080fd5b5035919050565b60008060408385031215613c0557600080fd5b8235915061391e6020840161380d565b600080600060608486031215613c2a57600080fd5b613981846138c1565b600081518084526020808501945080840160005b83811015613c755781516fffffffffffffffffffffffffffffffff1687529582019590820190600101613c47565b509495945050505050565b6000815180845260005b81811015613ca657602081850181015186830182015201613c8a565b81811115613cb8576000602083870101525b50601f017fffffffffffffffffffffffffffffffffffffffffffffffffffffffffffffffe0169290920160200192915050565b6020808252825182820181905260009190848201906040850190845b81811015613d3957835173ffffffffffffffffffffffffffffffffffffffff1683529284019291840191600101613d07565b50909695505050505050565b6020808252600090610540830183820185845b6029808210613d675750613e8f565b8785037fffffffffffffffffffffffffffffffffffffffffffffffffffffffffffffffe0018452825185610520810160005b84811015613e795788820383528351606073ffffffffffffffffffffffffffffffffffffffff8083511685526fffffffffffffffffffffffffffffffff8d840151168d86015260408084015193508281870152835160c08085890152613e03610120890183613c80565b91508f8601516080858216818b015284880151955067ffffffffffffffff945084861660a08b0152848789015116838b0152808801519750505050613e5e60e08801868051600f0b82526020810151600f0b60208301525050565b978e0197968e0196955050506001929092019150613d999050565b5096505050928501925090840190600101613d58565b50919695505050505050565b60006020808301818452808551808352604092508286019150828160051b8701018488016000805b84811015613f7c578984037fffffffffffffffffffffffffffffffffffffffffffffffffffffffffffffffc0018652825180516fffffffffffffffffffffffffffffffff90811686528982015160608b880181905281519088018190526080880192918c01919086905b80821015613f5b5783518051841686528e0151600f0b8e860152938c0193928d019260019190910190613f2d565b50505050908801511515948801949094529487019491870191600101613ec3565b50919998505050505050505050565b608081526000613f9e6080830187613c33565b82810360208481019190915286518083528782019282019060005b81811015613ff257613fdf8386518051600f0b82526020810151600f0b60208301525050565b9383019360409290920191600101613fb9565b505084810360408601526140068188613c33565b935050505067ffffffffffffffff8316606083015295945050505050565b602081526000612e566020830184613c80565b600081600f0b83600f0b60008212826f7fffffffffffffffffffffffffffffff0382138115161561406a5761406a614529565b827fffffffffffffffffffffffffffffffff8000000000000000000000000000000003821281161561409e5761409e614529565b50019392505050565b60006fffffffffffffffffffffffffffffffff8083168185168083038211156140d2576140d2614529565b01949350505050565b600082198211156140ee576140ee614529565b500190565b60006fffffffffffffffffffffffffffffffff8084168061411657614116614558565b92169190910492915050565b60008261413157614131614558565b500490565b600181815b8085111561418f57817fffffffffffffffffffffffffffffffffffffffffffffffffffffffffffffffff0482111561417557614175614529565b8085161561418257918102915b93841c939080029061413b565b509250929050565b6000612e5667ffffffffffffffff8416836000826141b7575060016105a9565b816141c4575060006105a9565b81600181146141da57600281146141e457614200565b60019150506105a9565b60ff8411156141f5576141f5614529565b50506001821b6105a9565b5060208310610133831016604e8410600b8410161715614223575081810a6105a9565b61422d8383614136565b807fffffffffffffffffffffffffffffffffffffffffffffffffffffffffffffffff0482111561425f5761425f614529565b029392505050565b600081600f0b83600f0b6f7fffffffffffffffffffffffffffffff6000821360008413838304851182821616156142a0576142a0614529565b7fffffffffffffffffffffffffffffffff8000000000000000000000000000000060008512868205861281841616156142db576142db614529565b600087129250858205871284841616156142f7576142f7614529565b8585058712818416161561430d5761430d614529565b5050509290910295945050505050565b60006fffffffffffffffffffffffffffffffff8083168185168183048111821515161561434c5761434c614529565b02949350505050565b600081600f0b83600f0b60008112817fffffffffffffffffffffffffffffffff800000000000000000000000000000000183128115161561439857614398614529565b816f7fffffffffffffffffffffffffffffff0183138116156143bc576143bc614529565b5090039392505050565b60006fffffffffffffffffffffffffffffffff838116908316818110156143ef576143ef614529565b039392505050565b60008282101561440957614409614529565b500390565b600181811c9082168061442257607f821691505b6020821081141561445c577f4e487b7100000000000000000000000000000000000000000000000000000000600052602260045260246000fd5b50919050565b60006fffffffffffffffffffffffffffffffff8083168181141561448857614488614529565b6001019392505050565b60007fffffffffffffffffffffffffffffffffffffffffffffffffffffffffffffffff8214156144c4576144c4614529565b5060010190565b60006fffffffffffffffffffffffffffffffff808416806144ee576144ee614558565b92169190910692915050565b60008261450957614509614558565b500690565b600067ffffffffffffffff808416806144ee576144ee614558565b7f4e487b7100000000000000000000000000000000000000000000000000000000600052601160045260246000fd5b7f4e487b7100000000000000000000000000000000000000000000000000000000600052601260045260246000fd5b7f4e487b7100000000000000000000000000000000000000000000000000000000600052603160045260246000fd5b7f4e487b7100000000000000000000000000000000000000000000000000000000600052603260045260246000fd5b801515811461267257600080fdfea2646970667358221220c9574a1788e369a9a2861e3cd4d44a70c487f3bcc2c221aeecf9081ac71373f564736f6c63430008060033",
  "immutableReferences": {},
  "source": "// SPDX-License-Identifier: MIT\npragma solidity ^0.8.2;\n\nimport \"@openzeppelin/contracts/token/ERC20/ERC20.sol\";\nimport \"@openzeppelin/contracts/access/Ownable.sol\";\n\ninterface ERC20I {\n    function mintTo(address to, uint256 amount) external returns (bool);\n}\n\ncontract Marsmello is ERC20, Ownable {\n    constructor() ERC20(m_name, m_symbol) {\n        _mint(msg.sender, m_supply * 10**decimals());\n        deploy_time = block.timestamp;\n        factories.push(Factory(\"Void\", address(0), 0, 0, CoOrdinates(0, 0)));\n    }\n\n    string m_name = \"MarsMello\";\n    string m_symbol = \"MLO\";\n    uint256 m_supply = 10**9;\n    uint256 deploy_time;\n    uint256 randomness = 12345678901234567890;\n    uint256 land_price = 1000 * 10**decimals();\n    uint256 resources_count = 5;\n\n    uint256 factory_count = 0;\n    struct Land {\n        address owner;\n        uint128 seed;\n        uint128 ontop;\n    }\n    struct Factory {\n        string name;\n        address owner;\n        uint64 ftype;\n        uint64 efficiency;\n        CoOrdinates placedon;\n    }\n    struct User {\n        uint128[] factories;\n        CoOrdinates[] lands;\n        uint128[] flows;\n        uint64 lastclaimed;\n    }\n    struct CoOrdinates {\n        int128 x;\n        int128 y;\n    }\n    struct Relay {\n        address owner;\n        uint128 seed;\n        Factory ontop;\n    }\n    struct Resource {\n        uint128 id;\n        int128 rate;\n    }\n    struct Factory_type {\n        uint128 price;\n        Resource[] resources;\n        bool land_dependent;\n    }\n    address[] private tokens;\n\n    mapping(int128 => mapping(int128 => Land)) private lands;\n    Factory[] private factories;\n    Factory_type[] private factory_types;\n    mapping(address => User) private users;\n\n    modifier landOwner(int128 x, int128 y) {\n        require(\n            lands[x][y].owner == msg.sender,\n            \"Land doesn't belong to you !\"\n        );\n        _;\n    }\n    modifier factoryOwner(uint256 id) {\n        require(\n            factories[id].owner == msg.sender,\n            \"Factory doesn't belong to you !\"\n        );\n        _;\n    }\n\n    function chechUser(address a) public {\n        while (users[a].flows.length < resources_count) {\n            users[a].flows.push(0);\n        }\n    }\n\n    function getUserData(address user)\n        public\n        view\n        returns (\n            uint128[] memory,\n            CoOrdinates[] memory,\n            uint128[] memory,\n            uint64\n        )\n    {\n        return (\n            users[user].factories,\n            users[user].lands,\n            users[user].flows,\n            users[user].lastclaimed\n        );\n    }\n\n    function getLandPrice() public view returns (uint256) {\n        return (land_price);\n    }\n\n    function getRandomNumber(uint256 rand) public view returns (uint128) {\n        return\n            uint128(\n                uint256(\n                    keccak256(\n                        abi.encodePacked(blockhash(block.number - 1), rand)\n                    )\n                )\n            );\n    }\n\n    function addFactoryType(\n        uint128 price,\n        bool land_dependent,\n        uint128[] calldata r1,\n        int128[] calldata r2\n    ) public onlyOwner returns (uint256) {\n        require(r1.length == r2.length, \"Array length mismatch!\");\n        factory_types.push();\n        uint256 id = factory_types.length - 1;\n        factory_types[id].price = price;\n        factory_types[id].land_dependent = land_dependent;\n        for (uint256 i = 0; i < r1.length; i++) {\n            factory_types[id].resources.push(Resource(r1[i], r2[i]));\n        }\n        return id;\n    }\n\n    function deletefactoryType() public onlyOwner {\n        factory_types.pop();\n    }\n\n    function getFactoryType() public view returns (Factory_type[] memory) {\n        return factory_types;\n    }\n\n    function addResource(address token_address)\n        public\n        onlyOwner\n        returns (uint256)\n    {\n        tokens.push(token_address);\n        return (tokens.length - 1);\n    }\n\n    function editResource(uint256 id, address token_address) public onlyOwner {\n        tokens[id] = token_address;\n    }\n\n    function deleteResource() public onlyOwner {\n        tokens.pop();\n    }\n\n    function getResource() public view returns (address[] memory) {\n        return tokens;\n    }\n\n    function mintFactory(string calldata name, uint8 ftype) public {\n        require(\n            balanceOf(msg.sender) >= factory_types[ftype].price,\n            \"Not enough MLO in your wallet to buy land !\"\n        );\n        chechUser(msg.sender);\n        uint128 seed = getRandomNumber(factories.length);\n        factories.push(\n            Factory(\n                name,\n                msg.sender,\n                ftype,\n                uint64(50 + (seed % 51)),\n                CoOrdinates(0, 0)\n            )\n        );\n        _transfer(msg.sender, address(this), factory_types[ftype].price);\n        users[msg.sender].factories.push(uint64(factories.length - 1));\n    }\n\n    function getLandRate(uint128 seed, uint64 ftype)\n        public\n        view\n        returns (uint128)\n    {\n        if (factory_types[ftype].land_dependent == false) return 100;\n        return uint128(50 + ((seed / (10**(ftype % 35))) % 51));\n    }\n\n    function mintLand(int32 x, int32 y) public {\n        require(x != 0 || y != 0, \"Can't buy spawn !\");\n        require(lands[x][y].owner == address(0), \"Land already exists !\");\n        require(\n            balanceOf(msg.sender) >= land_price,\n            \"Not enough MLO in your wallet to buy land !\"\n        );\n        chechUser(msg.sender);\n        _transfer(msg.sender, address(this), land_price);\n        land_price += land_price / 100;\n        uint128 seed = getRandomNumber(land_price);\n        lands[x][y] = Land(msg.sender, seed, 0);\n        users[msg.sender].lands.push(CoOrdinates(x, y));\n    }\n\n    function _clearLand(CoOrdinates memory c) private {\n        if (c.x != 0 || c.y != 0) lands[c.x][c.y].ontop = 0;\n    }\n\n    function _clearFactory(uint256 id) private {\n        if (\n            id != 0 &&\n            (factories[id].placedon.x != 0 || factories[id].placedon.y != 0)\n        ) {\n            factories[id].placedon = CoOrdinates(0, 0);\n        }\n    }\n\n    function placeFactory(\n        uint64 factory_id,\n        int128 x,\n        int128 y\n    ) public landOwner(x, y) factoryOwner(factory_id) {\n        claimAll();\n        _clearFactory(lands[x][y].ontop);\n        _clearLand(factories[factory_id].placedon);\n\n        lands[x][y].ontop = factory_id;\n        Factory storage f = factories[factory_id];\n        f.placedon = CoOrdinates(x, y);\n        for (uint256 i = 0; i < factory_types[f.ftype].resources.length; i++) {\n            Resource memory r = factory_types[f.ftype].resources[i];\n            if (r.rate < 0) {\n                require(\n                    users[msg.sender].flows[r.id] >\n                        uint128(-1 * r.rate) * uint128(f.efficiency),\n                    \"Not enough resource stream to place factory !\"\n                );\n                users[msg.sender].flows[r.id] -=\n                    uint128(-1 * r.rate) *\n                    uint128(f.efficiency);\n            } else {\n                users[msg.sender].flows[r.id] +=\n                    (uint128(r.rate) *\n                        uint128(f.efficiency) *\n                        getLandRate(lands[x][y].seed, f.ftype)) /\n                    100;\n            }\n        }\n    }\n\n    function transferLand(\n        address to,\n        int128 x,\n        int128 y\n    ) public landOwner(x, y) {\n        _clearFactory(lands[x][y].ontop);\n        _clearLand(CoOrdinates(x, y));\n        lands[x][y].owner = to;\n        for (uint256 i = 0; i < users[msg.sender].lands.length; i++) {\n            if (\n                users[msg.sender].lands[i].x == x &&\n                users[msg.sender].lands[i].y == y\n            ) {\n                users[msg.sender].lands[i] = CoOrdinates(0, 0);\n                break;\n            }\n        }\n        users[to].lands.push(CoOrdinates(x, y));\n    }\n\n    function transferFactory(address to, uint64 factory_id)\n        public\n        factoryOwner(factory_id)\n    {\n        Factory storage f = factories[factory_id];\n        _clearLand(f.placedon);\n        _clearFactory(factory_id);\n        f.owner = to;\n        for (uint256 i = 0; i < users[msg.sender].factories.length; i++) {\n            if (users[msg.sender].factories[i] == factory_id) {\n                users[msg.sender].factories[i] == 0;\n                break;\n            }\n        }\n        users[to].factories.push(factory_id);\n    }\n\n    function claimAll() public {\n        uint128[] memory amounts = users[msg.sender].flows;\n        uint128 t = uint128(block.timestamp) - users[msg.sender].lastclaimed;\n        if (t > 86400) t = 86400;\n        for (uint256 i = 0; i < amounts.length; i++) {\n            amounts[i] *= t;\n        }\n        for (uint256 i = 0; i < amounts.length; i++) {\n            if (amounts[i] > 0)\n                require(ERC20I(tokens[i]).mintTo(msg.sender, amounts[i]));\n        }\n        users[msg.sender].lastclaimed = uint64(block.timestamp);\n    }\n\n    function getArea(int128 x, int128 y)\n        public\n        view\n        returns (Relay[41][41] memory)\n    {\n        Relay[41][41] memory r;\n        for (uint128 i = 0; i < 41; i++) {\n            for (uint128 j = 0; j < 41; j++) {\n                Land memory l = lands[x - 20 + int128(i)][y - 20 + int128(j)];\n                r[i][j] = Relay(l.owner, l.seed, factories[l.ontop]);\n            }\n        }\n        return r;\n    }\n}\n",
  "sourcePath": "/Users/jayeshbhole/Documents/GitHub/MarsMello/contracts/Marsmello.sol",
  "compiler": {
    "name": "solc",
    "version": "0.8.6+commit.11564f7e.Emscripten.clang"
  },
  "schemaVersion": "3.4.1",
  "updatedAt": "2021-08-03T12:54:16.156Z",
  "networkType": "ethereum",
  "devdoc": {
    "kind": "dev",
    "methods": {
      "allowance(address,address)": {
        "details": "See {IERC20-allowance}."
      },
      "approve(address,uint256)": {
        "details": "See {IERC20-approve}. Requirements: - `spender` cannot be the zero address."
      },
      "balanceOf(address)": {
        "details": "See {IERC20-balanceOf}."
      },
      "decimals()": {
        "details": "Returns the number of decimals used to get its user representation. For example, if `decimals` equals `2`, a balance of `505` tokens should be displayed to a user as `5,05` (`505 / 10 ** 2`). Tokens usually opt for a value of 18, imitating the relationship between Ether and Wei. This is the value {ERC20} uses, unless this function is overridden; NOTE: This information is only used for _display_ purposes: it in no way affects any of the arithmetic of the contract, including {IERC20-balanceOf} and {IERC20-transfer}."
      },
      "decreaseAllowance(address,uint256)": {
        "details": "Atomically decreases the allowance granted to `spender` by the caller. This is an alternative to {approve} that can be used as a mitigation for problems described in {IERC20-approve}. Emits an {Approval} event indicating the updated allowance. Requirements: - `spender` cannot be the zero address. - `spender` must have allowance for the caller of at least `subtractedValue`."
      },
      "increaseAllowance(address,uint256)": {
        "details": "Atomically increases the allowance granted to `spender` by the caller. This is an alternative to {approve} that can be used as a mitigation for problems described in {IERC20-approve}. Emits an {Approval} event indicating the updated allowance. Requirements: - `spender` cannot be the zero address."
      },
      "name()": {
        "details": "Returns the name of the token."
      },
      "owner()": {
        "details": "Returns the address of the current owner."
      },
      "renounceOwnership()": {
        "details": "Leaves the contract without owner. It will not be possible to call `onlyOwner` functions anymore. Can only be called by the current owner. NOTE: Renouncing ownership will leave the contract without an owner, thereby removing any functionality that is only available to the owner."
      },
      "symbol()": {
        "details": "Returns the symbol of the token, usually a shorter version of the name."
      },
      "totalSupply()": {
        "details": "See {IERC20-totalSupply}."
      },
      "transfer(address,uint256)": {
        "details": "See {IERC20-transfer}. Requirements: - `recipient` cannot be the zero address. - the caller must have a balance of at least `amount`."
      },
      "transferFrom(address,address,uint256)": {
        "details": "See {IERC20-transferFrom}. Emits an {Approval} event indicating the updated allowance. This is not required by the EIP. See the note at the beginning of {ERC20}. Requirements: - `sender` and `recipient` cannot be the zero address. - `sender` must have a balance of at least `amount`. - the caller must have allowance for ``sender``'s tokens of at least `amount`."
      },
      "transferOwnership(address)": {
        "details": "Transfers ownership of the contract to a new account (`newOwner`). Can only be called by the current owner."
      }
    },
    "version": 1
  },
  "userdoc": {
    "kind": "user",
    "methods": {},
    "version": 1
  }
}